:020000040000FA
:0600000002011A0221AB0F
:03002B0002290B9C
:0300530002221E68
:03006B000228D98F
:10008300022017E5C754F84401F5C779012200009F
:100093000080FB120086B90003020104E479217891
:1000A30008B800028004F709D8FCE479297802B87B
:1000B30000028004F709D8FCE490028178C579072F
:1000C3008002F0A3D8FCD9FA781A90014A7A01BACF
:1000D30000028007E493A3F608DAF97A457B0990D6
:1000E300014B782979048015E493A3AD82AE838A0A
:1000F300828B83F0A3AA82AB838D828E83D8E9D9C6
:10010300E77582537583A6740312012C758291756A
:100113008300740012012C75D00075813F7518811E
:10012300751902759F00020096C09FF59FE473D076
:100133009F22D083D082C09FE493C0E0740193C018
:10014300E0740293F59F2201FF0000B40000280031
:100153002800283075A000A000A000A0000008001F
:1001630008E001F000100010001000100010001053
:100173000050005000500010001000D00700000095
:100183000000000F0001000500307507001000019A
:100193000081FF00000000FF71068F067706FF0253
:1001A300020208025000A0000000E80302E28101FD
:1001B3000000A18102CA810100009C090222810181
:1001C3000000B30202CA810100009D0902AA810155
:1001D3000000C90202CA810100009E0902AC81012C
:1001E3000000CB0202CA810100009F0902AE810810
:1001F3000000CC0202CA81010000A00902B0810103
:100203000000A109FF0100FF2002E2810100009B21
:100213008102CA81010000050A02B28100000000C8
:100223000002B6810300001903470C470C470C4733
:100233000C470C470C470C470C470C470C470C4723
:100243000C470CDB0EF30ED50E0202020202020271
:100253000202010D000000100102E281010000A76B
:100263008102CA81010000460A02C88101000040E0
:100273000702CA81010000470A02C6810100001576
:100283008102CA81010000480A02C481010000F909
:100293008002CA81010000490A02C2810100009361
:1002A3008002CA810100004A0A02E081010000A520
:1002B3008002CA810100004B0A02BE810100008155
:1002C3008002CA810100004C0A02BC81010000B710
:1002D3008002CA810100004D0A02BA8101000007B1
:1002E3008102CA810100004E0A02B8810100004F59
:1002F3000A01E803053F100AFFFFFF000130750301
:1003030002010600000000000000000000000000E1
:10031300000000000000000000000000000000FFDB
:10032300FF0600800CE8030A436861726163746529
:100333007269737469632031000243686172616397
:10034300746572697374696320320008436861726B
:100353006163746572697374696320330010436861
:100363006172616374657269737469632034000236
:10037300436861726163746572697374696320357C
:100383000002E2810100009E8102CA810100002473
:100393000B02CE81030000290902C0810100002560
:1003A3000B02CA81010000360B02D0810100002A32
:1003B3000902C081010000370B02CA810100004815
:1003C3000B02D2810200002B0902C0810100004907
:1003D3000B02CA810100005A0B02D4810000002CD9
:1003E3000902B6810300002D0902C0810100005BF0
:1003F3000B02CA810100006C0B02D681040000339A
:100403000902C0810100006D0B104B657920507209
:100413006573732053746174650002E28101000007
:10042300A48102CA81010000060C02DE81000000E3
:10043300380902B681030000390902C081010000B6
:10044300070C0B09466C6970537769746368020182
:10045300050302F0FF53776974636820466C697083
:1004630070657200000000000000551300005B136C
:10047300120135B09603120135C79603120135F800
:1004830096031201353397031201355D9703120169
:10049300358797031201359E9703120135B59703EC
:1004A300120135CC9703120135F597031201350874
:1004B30098031201351E9803120135319803120176
:1004C30035589803120135BCA702120135C0A802A2
:1004D300120135F8A8021201351BA90212013526B3
:1004E300A90212013549A90212013558AA021201C3
:1004F300352DAB02120135A8AB0212013530AC0227
:100503001201356BAC02120135A2AC021201353077
:10051300AD0212013509AE0212013569AE021201B4
:100523003574AE02120135F3AE02120135F6AE0296
:10053300120135F9AE0212013588AF021201358B73
:10054300AF02120135BBAF02120135E5AF02120152
:1005530035D3B00212013585B102120135B9E0027B
:10056300120135E1E0021201350FE10212013546B5
:10057300E102120135A4E102120135EFE102120199
:10058300353AE2021201357AE202120135C0E20283
:10059300120135EEE202120135ABE302120135B569
:1005A300E302120135C2E302120135F5E30212013F
:1005B30035C1E402120135CDE402120135E5E4024E
:1005C300120135EFE402120135D7A303120135E519
:1005D300A303120135FDA30312013515A403120170
:1005E30035BC7000120135687100120135E37100EA
:1005F300120135047300120135407300120135E90D
:100603007300120135D074001201353476001201E3
:10061300358B76001201350C7700120135FC77001B
:10062300120135497800120135CF780012013501E6
:100633007900120135157B00120135577B00120139
:1006430035757B00120135F87B00120135CC7C0037
:10065300120135947D00120135FEC902120135D114
:10066300CA021201357ACB02120135CDCB02120137
:10067300357DCC0212013509CD02120135F5CD02CB
:1006830012013524CE0212013537CF021201357F14
:10069300CF0212013554D00212013590D00212015B
:1006A30035ACD00212013568FF0212013500800318
:1006B3001201351680031201353C800312013558AF
:1006C30081031201356281031201359782031201FE
:1006D300358F8303120135A3D602120135D3D70216
:1006E30012013506D80212013550D802120135170E
:1006F300DA0212013519AA0112013583AA01120186
:1007030035E2AB01120135F2AB011201351FAC0129
:1007130012013576AC011201351FAD0112013526E8
:10072300AE01120135F0AE0112013550B0011201D4
:100733003593B00112013538B10112013585B1018C
:10074300120135ABB101120135B9B301120135BE46
:10075300B301120135C3B50112013510B6011201FF
:100763003583B601120135B6B60112013558B7010A
:1007730012013501B80112013539B8011201353CB6
:10078300B80112013584B801120135C4B801120150
:10079300351BB9011201353E8D03120135568D0308
:1007A3001201359E8D03120135B48D03120135FB01
:1007B3008D031201350F8F031201359C8F03120134
:1007C30035E78F0312013544290012013550290002
:1007D3001201358B2900120135D029001201359001
:1007E3002A00120135162B001201357B2B00120152
:1007F30035A72B00120135E02B001201351E2E0008
:10080300120135023000120135E831001201352B97
:1008130033001201357935001201358B3600120190
:1008230035D63700120135E6380012013503390099
:100833001201353E3900120135603900120135C30A
:100843003900120135843E00120135193F001201AF
:10085300356A3F00120135913F00120135E33F0035
:100863001201350140001201355B4000120135448D
:100873004100120135BA42001201353E4300120114
:100883003576E50212013580E502120135C3E50232
:10089300120135DEE5021201356EE60212013596CC
:1008A300E602120135D3E6021201350AE70212010C
:1008B3003533E702120135A8E702120135BDE7021D
:1008C300120135D2E70212013503E802120135178E
:1008D300E8021201353CE80212013576E802120102
:1008E30035A2E802120135DAE80212013559E902AC
:1008F300120135A2E902120135CCE902120135F7E2
:10090300E902120135D09F03120135E99A0212015F
:1009130035179B02120135659C02120135459D0274
:10092300120135649D02120135E19D021201352445
:100933009E021201357A9F021201353BA002120179
:1009430035C2A20212013563A30212013559A40272
:1009530012013556A502120135B0A6021201353B2C
:10096300A702120135489D03120135B19D031201FF
:1009730035059E031201352C9E031201355D9E033E
:10098300120135A9EE0212013516EF021201355D8F
:10099300EF0212013575F00212013571F1021201F5
:1009A3003554F202120135F6B10212013538B202A2
:1009B3001201350AB302120135E3B302120135DD28
:1009C300B402120135BFB50212013528B602120175
:1009D30035DEB60212013552B702120135BEB70237
:1009E300120135E7B70212013561B802120135FA77
:1009F300B8021201355FB90212013574B90212014E
:100A030035BAB902120135D3B90212013538BA0227
:100A13001201353BBA02120135458A031201356DC5
:100A23008A03120135AB8A03120135698B03120164
:100A330035D08B03120135EC8B03120135148C0373
:100A4300120135448C03120135538C03120135D046
:100A53008C03120135F68C0312013508BA01120119
:100A630035E6BB0112013518BE0112013554BE0132
:100A730012013581BE011201356BBF01120135B67A
:100A8300BF0112013501C00112013513C00112016A
:100A93003553C00112013588C001120135D6C0019A
:100AA30012013505C10112013528C1011201357545
:100AB300C101120135FAC10112013514C401120139
:100AC3003553C60112013594C60112013536C801EA
:100AD30012013577C801120135EAC8011201354008
:100AE300C901120135D48D02120135D28E021201D1
:100AF300356B95021201358C970212013557990215
:100B0300120135BF9A02120135A543001201355473
:100B13004400120135814400120135C7440012011B
:100B2300350746001201359D47001201351748006D
:100B3300120135324800120135AD48001201350764
:100B43004A00120135674B001201356D4C0012014A
:100B530035CE4D00120135E74D00120135454E00EB
:100B6300120135334F00120135664F00120135D69D
:100B73004F001201355050001201359A50001201F6
:100B830035645100120135395200120135185300F2
:100B9300120135A35300120135115400120135859A
:100BA3005400120135B054001201356F5500120183
:100BB30035D45600120135F1560012013510570095
:100BC3001201350158001201352658001201355023
:100BD3005800120135CB5800120135255900120176
:100BE300358E5A001201353C5B001201357D5B00E6
:100BF3001201350080021201354E80021201355A6E
:100C03008002120135388102120135698102120115
:100C1300359A81021201351A82021201355282027B
:100C2300120135A48202120135E18202120135FE5E
:100C330084021201352487021201350F8902120141
:100C430035F98A02120135F6FF01120135069601C4
:100C53001201353696011201350F9D0112013594AB
:100C63009E0112013591A40112013579A5011201EA
:100C730035B6A501120135D9A5011201350AA60120
:100C830012013513A6011201351DA6011201350B00
:100C9300A70112013501A801120135AD5B00120154
:100CA30035AC5F00120135B25F00120135ED66000D
:100CB300120135066C001201359AFB021201353020
:100CC300FC0212013546FC02120135BCFC02120182
:100CD3003530FD021201356EFD02120135E2FD02CF
:100CE3001201355BFE0212013564FE0212013570FA
:100CF300FE0212013585FE02120135C3FE02120106
:100D030035D9FE0212013538FF0212013516F302FE
:100D130012013523F3021201353DF3021201357C32
:100D2300F302120135BAF3021201351FF402120164
:100D33003534F4021201353FF4021201354CF4024A
:100D430012013563F40212013571F4021201357C8C
:100D5300F40212013588F40212013597F4021201EC
:100D630035A2F402120135C5F4021201356CF50205
:100D73001201357CF50212013596F502120135B3E5
:100D8300F502120135CFF502120135F4F502120115
:100D930035FFF50212013514F60212013528F60269
:100DA30012013589F6021201358FF60212013595CB
:100DB300F6021201359BF602120135B3F602120157
:100DC30035E6F602120135DBD7011201355FD80192
:100DD3001201350ED9011201356DDA011201358E7A
:100DE300DC011201357ADD01120135AFDD0112019B
:100DF30035D1DD0112013580DE0112013578E001C4
:100E0300120135A1E00112013533E101120135650B
:100E1300E10112013572E101120135C9E10112014B
:100E230035EFE1011201355CE4011201355FE501A3
:100E3300120135B7E5011201356AC9011201357492
:100E4300CA011201355BCB0112013565CB011201D9
:100E53003587CB0112013593CB011201352CCD011E
:100E63001201355BCD0112013577CE01120135D068
:100E7300CE0112013536D00112013515D10112010F
:100E83003571D101120135DED10112013519D201BB
:100E930012013558D20112013511D5011201352B3A
:100EA300D501120135B7D501120135C5D50112019E
:100EB300351ED6011201352CD6011201359FD601FC
:100EC30012013503D7011201354DD701120135E95E
:100ED300F3011201350BF40112013531F601120150
:100EE3003546F9011201355EFA0112013511FB0194
:100EF300120135F3FB011201351C9A03120135412E
:100F03009A03120135B39A0312013584C202120106
:100F1300358DC20212013596C2021201356DC3022C
:100F23001201351EC50212013554C5021201358E58
:100F3300C502120135C4C502120135FEC5021201F4
:100F43003532C6021201355EC602120135A7C6024A
:100F5300120135E1C6021201352AC7021201358298
:100F6300C702120135B7C70212013512C8021201B6
:100F7300354CC8021201359DC802120135D3C8028F
:100F83001201350DC9021201353BC9021201355E4A
:100F9300C902120135AEA403120135DAA40312010A
:100FA3003535A5031201353FA5031201354FA503BE
:100FB300120135318703120135568703120135803B
:100FC3008703120135ABA603120135E78101120134
:100FD30035478401120135FD8501120135EF860184
:100FE300120135768701120135F687011201352387
:100FF3008801120135448B01120135C08B011201A6
:1010030035AF8C01120135E78C011201352A8D01B0
:10101300120135D68E011201352B8F01120135785D
:101023008F01120135E68F011201350D9001120176
:10103300352790011201353C91011201354C910184
:10104300120135779201120135999201120135CFC0
:101053009201120135769401120135B59401120102
:1010630035E195011201353AA703120135AD7F0031
:10107300120135EC7F00120135ECFF021201351726
:10108300FF0112013527FF011201353CFF01120157
:1010930035F0FF01120135E9A0031201356DA103FB
:1010A300120135D3A103120135A39E03120135CAE0
:1010B3009E03120135209F03120135339F03120152
:1010C30035859F03120135C49F03120135C79F0362
:1010D300120135CADB02120135DEDB02120135577C
:1010E300DC0212013530DD02120135EEDF0212019E
:1010F3003553E002120135A6E002120135F87F00F4
:101103001201357C920312013504940312013565F3
:101113009403120135AB9403120135E6A2031201C5
:10112300350FA30312013538A30312013550A3036E
:1011330012013592A30312013521D1021201352B7D
:10114300D1021201356BD102120135B4D102120161
:1011530035EED10212013548D20212013567D202AF
:1011630012013570D202120135C1D202120135EAE1
:10117300D202120135F4D20212013560D3021201F8
:1011830035EED30212013547D40212013575D4026C
:10119300120135F5D40212013538D5021201357327
:1011A300D50212013585D502120135A4D5021201EB
:1011B30035ADD50212013577D602120135C19B0335
:1011C300120135169C03120135849C03120135F478
:1011D3009C031201351190031201353B9003120158
:1011E30035109103120135049203120135ECA1036A
:1011F300120135AE9403120135E494031201351D37
:10120300950312013576960312013559A503120190
:10121300356FA50312013579A503120135C3A50363
:101223001201355FBA021201351CBB021201355798
:10123300BB021201357FBB02120135E1BB02120171
:10124300352DBC0212013586BC0212013515BD02D3
:1012530012013517BE02120135D2BF0212013554F5
:10126300C002120135B9C002120135D0C002120109
:1012730035D9C10212013517C2021201351FEA0224
:1012830012013538EA02120135DCEA021201351C7B
:10129300EB0212013535EB0212013568EB02120144
:1012A30035B5EB02120135E9EB021201352BEC02E5
:1012B3001201352FEE021201359CEE02120135F4B4
:1012C300A50312013505E6011201358EE90112016C
:1012D3003516EB011201356DEB011201358CEB0173
:1012E3001201350AEC01120135A8ED011201358C0A
:1012F300EE0112013576F20112013546F3011201B6
:1013030035998303120135DE8303120135FB830311
:10131300120135AC8403120135FF8403120135DB5E
:101323008503120135F886031201356A9803120109
:1013330035AF9803120135039903120135829903DE
:10134300120135E3990312013563F702120135BF28
:10135300F902120135D1FA0212013571FB021201B1
:1013630035F0A6031201351CA703E066701008A32D
:10137300E066700A08A3E066700408A3E06622C36F
:10138300E7960809E7960809E7960809E79622C34E
:10139300E09608A3E09608A3E09608A3E09622C08F
:1013A30008C3E096F50808A3E096420808A3E09670
:1013B300420808A3E09645087001D3D00822080824
:1013C30008EAC0E0EBC0E086F0E7A4FA180986F06B
:1013D300E7A42AFA180986F0E7A42AFA180986F07E
:1013E300E7A42AFA1986F0E7A4FBE5F02AFA19081C
:1013F30086F0E7A42BFBE5F03AFA190886F0E7A498
:101403002BFBE5F03AFA18180986F0E7A4C5F02B90
:10141300FBE43AFA1908E7C5F0C6A426F6E5F03B63
:10142300FBE43AFA1886F0E7A4F6E5F00826F6E4BA
:101433003B08F6E43A08F6D0E0FBD0E0FA22E4CF2A
:10144300C0E0E4CEC0E0E4CDC0E0E4CCC0E075F0A1
:1014530020E626F608E633F608E633F608E633F622
:10146300181818EC33FCED33FDEE33FEEF33FFC3F6
:10147300EC9709ED9709EE9709EF97191919400FA2
:10148300FFEC97FC09ED97FD09EE97FE191906D5B8
:10149300F0BFECF709EDF709EEF709EFF7191919A2
:1014A300D0E0FCD0E0FDD0E0FED0E0FF22601608E3
:1014B3000808C6C313C618C613C618C613C618C66B
:1014C30013C6D5E0EA227009080808226016181826
:1014D30018C6C333C608C633C608C633C608C633E0
:1014E300C6D5E0EA22E627F60809E637F60809E654
:1014F30037F60809E637F622E026F608A3E036F6C3
:1015030008A3E036F608A3E036F622E026F008A3A7
:10151300E036F008A3E036F008A3E036F022C3E695
:1015230097F60809E697F60809E697F60809E69795
:10153300F622C3E096F008A3E096F008A3E096F045
:1015430008A3E096F022E657F60809E657F60809DD
:10155300E657F60809E657F622E056F608A3E056E2
:10156300F608A3E056F608A3E056F622E056F00884
:10157300A3E056F008A3E056F008A3E056F022E0FB
:10158300F608A3E0F608A3E0F608A3E0F622E6F0E7
:1015930008A3E6F008A3E6F008A3E6F022E0FAA326
:1015A300E0FBA3E0FCA3E0FD22EAF0A3EBF0A3EC55
:1015B300F0A3EDF022E0F8A3E0F9A3E0FAA3E0FB47
:1015C30022E8F0A3E9F0A3EAF0A3EBF022CAC0E01B
:1015D300E6F0A308DAFAD0E0FA22CAC0E0E0A3C535
:1015E30082CCC582C583CDC583F0A3C582CCC58219
:1015F300C583CDC583DAE6D0E0CA22C3E498F8E414
:1016030099F912163F8026C3E49AFAE49BFBE9207A
:10161300E7E912163FE498F8E499F922C3E498F84D
:10162300E499F912163FE498F8E499F9C3E49AFAB5
:10163300E49BFB22EB20E7CFE920E7E0B90010BBF6
:101643000008E88AF084F8AAF022E4FBC8FA22EB47
:1016530070227B10C833C8C933C9335007C39AC338
:10166300DBF280069A50012ADBEAC833F4C8C93397
:10167300F4C9FA2275F008E4C833C8C933C933C9B9
:101683009AC99B5004C92AC93BD5F0ECFBC833F473
:10169300C8E4C9FA22600D08C6A2E713C618C61328
:1016A300C6D5E0F322600C08C6C313C618C613C61A
:1016B300D5E0F422700422600D18C6C333C608C6F1
:1016C30033C6D5E0F41822251810AF08F518400CDE
:1016D30015198008F51840021519D2AF2200C0D0A1
:1016E300251810AF08F518500C05198008F5185087
:1016F300020519D2AFD0D0222518F58210AF08F514
:1017030018400C15198008F51840021519D2AF8539
:101713001983222518F582E43519F583222518F853
:10172300E43519F9222518FAE43519FB222518FCAA
:10173300E43519FD22E4732518C582C0E0E51934A8
:10174300FFC583C0E0E518C3958224F810AF088570
:1017530083198582188008858319858218D2AFCEB4
:10176300F0A3E520F0A37808E608F0A3DEFAEFF093
:10177300A3E58124FAF8E608F0A3E608F0A3E60857
:10178300F0A30808E608F0A3E608F0A31581158185
:10179300D0E0FED0E0F8158115811581E8C0E0EEB8
:1017A300C0E0222518C582C0E0E51934FFC583C017
:1017B300E0E518C3958224F910AF08858319858263
:1017C300188008858319858218D2AFCEF0A3E5204F
:1017D300F0A37808E608F0A3DEFAEFF0A3E581248E
:1017E300FBF8E608F0A3E608F0A30808E608F0A370
:1017F300E608F0A315811581D0E0FED0E0F815814D
:101803001581E8C0E0EEC0E022851983851882E0E7
:10181300A3FEE0A3F5207808E0A3F608DFFAE0A32F
:10182300FFE0A3C0E0E0A3C0E0E0A3C0E0E0A3C00A
:10183300E0E0A3C0E010AF08858218858319800813
:10184300858218858319D2AFD083D0820201328575
:101853001983851882E0A3FEE0A3F5207808E0A3AE
:10186300F608DFFAE0A3FFE0A3C0E0E0A3C0E0E0F6
:10187300A3C0E0E0A3C0E010AF08858218858319F8
:101883008008858218858319D2AFD083D08222C085
:10189300D02518C582C0E0E51934FFC583C0E0E553
:1018A30018C3958224F310AF0885831985821880A5
:1018B30008858319858218D2AFC8F0A3E9F0A3EA9B
:1018C300F0A3EBF0A37908E709F0A3D8FAECF0A3AF
:1018D300EDF0A3EEF0A3EFF0A3D0E0F0A3D0E0F09F
:1018E300A3D0E0F0A3E520F0A3E5F0F0A32285194F
:1018F30083851882E0C0E0A3E0F9A3E0FAA3E0FB4C
:10190300A37808E0F608A3DFFAE0FCA3E0FDA3E078
:10191300FEA3E0FFA3E0C0E0A3E0C0E0A3E0F5D0B6
:10192300A3E0F520A3E0A3F5F010AF0885831985A4
:1019330082188008858319858218D2AFD082D0831C
:10194300D0E0F8D0E032740480067402800274019F
:10195300C0E0F4041216FBD0E01215D02274048008
:101963000474028000CCC0E0EDC0E0E518C39CCC59
:10197300AD1950011D10AF068C188D1980068C18F7
:101983008D19D2AF1215DDD0E0FDD0E0FC22D0835B
:10199300D082E9C0E0E493A3C386F0C5F095F0F9E3
:1019A30008E493A386F0C5F095F0700BE493A3C30A
:1019B300994005E9048002A3E475F002A42582F5A9
:1019C30082E5F03583F583D0E0F9E493A3C0E0E446
:1019D30093C0E022D083D082ECC0E0EDC0E0E4937A
:1019E300A3FCE493A3FDED4C600D121A23EC24FF3A
:1019F300FCED34FFFD80EFE493A3FCE493A3FDED42
:101A03004C600D121A62EC24FFFCED34FFFD80EFF5
:101A1300D0E0FDD0E0FCE493A3C0E0E493C0E02277
:101A2300C0E0C3E49396087401939618400FE493BF
:101A330066700808740193661870007019A3A3C335
:101A4300E49396087401939618A3A3400DD0E0D0B5
:101A5300E0D0E0021A13A3A3A3A3A3A3D0E022C060
:101A6300E0C0F088F0E49366700808740193661888
:101A73007000A8F0A3A3700BD0F0D0E0D0E0D0E0CA
:0A1A8300021A13A3A3D0F0D0E02252
:101A900074F51217A6EAFEEBFFEE2434F8EF3400DB
:101AA000F988088909EE2435F582EF3400F583E0E2
:101AB000F8EE2437F582EF3400F583E0F50AEC8583
:101AC0000AF0A4FCAAF0850AF0EDA42AFDE82CF89F
:101AD000E43DF97A257B0012163FEA8508828509E4
:101AE00083F0F8740758F97401B900028004C33315
:101AF000D9FCFAE8131313541FF8EE28F8EF34005A
:101B0000F9E8245DF582E93400F583E05A6008EED7
:101B10002434F582EF802CEE2434F582EF3400F586
:101B200083E0C0E0EE2436F582EF3400F583E0F583
:101B3000F0D0E084A8F0EE28F8EF3400F9E824387B
:101B4000F582E93400F583E0F97F0402185274F558
:101B50001217A6EAFEEBFFEE2434F582EF3400F50F
:101B600083E0C0E0EE2435F582EF3400F583D0E069
:101B7000F08E828F83A3A3A3A3A3A3A3C082C08359
:101B80008E828F83A3A3A3A3A3E0F8A3E0F9D0835D
:101B9000D082E0C398F508A3E099F509EE247FF51B
:101BA00082EF3400F583E064017069EE2480F582F1
:101BB000EF3400F583E0F8A3E0F98E828F83A3A3CE
:101BC000A3A3A3A3A3E0FCA3E0FD8E828F83A3A322
:101BD000A3A3A3E0FAA3E0FBC3EA9CEB9D5010C3D0
:101BE000EC98ED99402EC3EA98EB995027800EC3EC
:101BF000EA98EB994007C3EC98ED9940177CDC7D9F
:101C000004EEFAEFFB120BA5EE247FF582EF340011
:101C1000F583E4F0EE2434F8EF3400F9E8FCE9FD54
:101C2000EE2435F582EF3400F583E0F8EE2437F545
:101C300082EF3400F583E0F50AE508850AF0A4F5A3
:101C400008AAF0850AF0E509A42AF509E82508F8AC
:101C5000E43509F97A257B0012163FEA8C828D83E0
:101C6000F0F8740758F97401B900028004C333D93D
:101C7000FCFAE8131313541FF8EE28F8EF3400F9B8
:101C8000E8245DF582E93400F583E05A6008EE242B
:101C900034F582EF802CEE2434F582EF3400F583A6
:101CA000E0C0E0EE2436F582EF3400F583E0F5F095
:101CB000D0E084A8F0EE28F8EF3400F9E82438F5F5
:101CC00082E93400F583E0F91228CB021B49C08277
:101CD000C083851882851983E0F8A3E0F9C3EA9CE4
:101CE000EB9D5010C3EC98ED99401BC3EA98EB991B
:101CF0005014800EC3EA98EB994007C3EC98ED9915
:101D00004004790180027900D083D08222EAC39C0A
:101D1000FAEB9DFB2274EF1217A69003A2E0640871
:101D20006005E06407702A9061C8E060249003D0E9
:101D3000E0F4601DE0F875F003A4C8AAF02AF97475
:101D4000D228FE740339FF8E828F83A3A3A3E07091
:101D500003021E45906060E0C0E0EE2468F582EF6B
:101D60003400F583D0E0F0750C45750D057508005D
:101D7000750900E5D914F50AE5D95403F50E601785
:101D80007403650E605CE50A6010EE2467F582EF6F
:101D90003400F583E07003021E2A900540E06401E0
:101DA000602AEE2482F582EF3400F583E060047847
:101DB0000480027800850A08E508C398FA95E0FBDC
:101DC000120A6D8A088B09EA45097005120DA9806F
:101DD00074EE2482F582EF3400F583E070048A0CFF
:101DE0008B0DE50A6012850C82850D83F50BE5D914
:101DF000F0A3150BE50B70F6EE2482F582EF3400AC
:101E0000F583E0604474FC250AF50A780C12194D3C
:101E1000AC0AA90EEEFAEFFB120C4174021216E0A6
:101E2000E97026AA08AB091211C3793D8E828F830F
:101E3000A3A3A3A3E0FA7B00120941EEFAEFFB1281
:101E40000BBD120C53790080747403650E605685C7
:101E50000A10751100781012194DAC0CAD0DAA08BE
:101E6000AB09120C1D74021216E0EE2468F582EF25
:101E70003400F583E064807004747F8001E0F50C29
:101E8000780C121951E50EF50C780C121951A90AAB
:101E9000AC08AD099003D0E0FA7B0012090574028A
:101EA0001216E080139003A2E06408600BAC0CAD46
:101EB0000DEEFAEFFB120CAD120DB579017F0A029F
:101EC000185274F51217A674FC1216CAEAFEEBFF3C
:101ED0008908A2AFE433F509C2AF806AEE2463F843
:101EE000EF3400F97A007B00A2AFE433F50AC2AF09
:101EF00088828983E0FCA3E0FDEC4D603A8882890A
:101F000083E0FAA3E0FB8A828B83E0FCA3E0FD88F8
:101F1000828983ECF0A3EDF08A828B83E4F0A3F056
:101F200088828983E0FCA3E0FDEC4D700A888289F9
:101F300083A3A3E4F0A3F0E50AA2E092AF1211C3D9
:101F40009004E3E004F0EE2463F582EF3400F583BF
:101F5000E0F8A3E0F9E849603DEE2463F582EF3450
:101F600000F583E02402FAA3E03400FBEA2402F542
:101F70000AEB3400F50B780A12194D8A828B83E044
:101F8000FCA3E0F9EEFAEFFB120BE174021216E08B
:101F9000E97003021EDC9004E3E060639004E4E077
:101FA000F89004E3E0C398500C74026508705090F8
:101FB00004E5E0604A8E828F83A3A3A3A3E0851883
:101FC00082851983F0A3E4F09004E3E0F874021230
:101FD0001716E8F0A3E4F09004E3E0F89004E2E0E0
:101FE00028F07402121716AC82AD83851882851909
:101FF00083AA82AB8379011209119004E3E4F0E52E
:1020000009A2E092AF74041216E0021B490000001E
:102010008521878522C622C0E0C0D0E8C0E0E9C0A3
:10202000E0EAC0E0EBC0E0ECC0E0EDC0E0EEC0E014
:10203000C008C009C00AC00BC082C083C0F0A2AFF4
:10204000E433FEC2AF759B00906182E0A2E05012C3
:10205000E591A2E0500C7591FE74016521700312A8
:102060001D15E0A2E55051E591A2E5504B7591DFB9
:102070009003A2E064076005E064087023740165C2
:1020800021703579019003D0E0FA75F003A4CAA855
:10209000F028FB74D22AFA74033BFB121EC280188C
:1020A000E0640D70139003C4E004F064287002E44F
:1020B000F07A00E0F9120DBB906182E0A2E64003E5
:1020C00002215EE591A2E6400302215E7591BF9078
:1020D00003A2E064057008120CE3120CEF800312F7
:1020E0000CE9752100120D49E99003A3F079001263
:1020F0000D3D120B1B7A017B009003A1E0F9121138
:1021000093907803E064427055900544E014F070B9
:102110004DC2AF12211600782AD0E0F618D0E0F6B2
:10212000E59F540770057509FF800375097FC4C0DA
:10213000E07829E6F50808E65509F509740B7808F2
:102140001216A8D0E02508F8906270E0A2E740F8E7
:10215000E8C333906272F0906270E0D2E0F0906178
:1021600081E0A2E35009E5E9A2E3500375E9F7A392
:10217000E0A2E75009E591A2E7500375917FEEA236
:10218000E092AFD0F0D083D082D00BD00AD009D06B
:1021900008D0E0FED0E0FDD0E0FCD0E0FBD0E0FADB
:1021A000D0E0F9D0E0F8D0D0D0E032C0E0C0D0C06C
:1021B00082C083906183E0A2E05009E5BFA2E050B5
:1021C0000375BFFEE0A2E15009E5BFA2E15003752F
:1021D000BFFDE0A2E25009E5BFA2E2500375BFFBDC
:1021E000E0A2E35009E5BFA2E3500375BFF7E0A208
:1021F000E45009E5BFA2E4500375BFEFE0A2E5504B
:1022000009E5BFA2E5500375BFDFE0A2E65009E58E
:10221000BFA2E6500375BFBFD083D0828088C0E0E4
:10222000C0D0E8C0E0E9C0E0EAC0E0EBC0E0ECC04C
:10223000E0EDC0E0C0F0E5A7A2E6500FE5A1A2E600
:10224000500953A7BF75A1BF122283E5A7A2E5508D
:102250000CE5A1A2E5500653A7DF75A1DFE5A7A213
:10226000E15009E5A1A2E1500375A1FDE5A7A2E2B5
:10227000500CE5A1A2E2500653A7FB75A1FBD0F0DC
:1022800002219474F81217A67521019003A2E0644C
:10229000067015120C718A828B83A3A3A3A3A3A338
:1022A000E0FAA3E0FB120CD1A2AFE433FED2AF9070
:1022B00003A8E0640170187A207B009003A1E0F984
:1022C0001212A17A207B009003A1E0F912119990DB
:1022D0006182E0D2E6F0900541E0602185C622806F
:1022E000169003A7E064017008E5C654F84405F5AC
:1022F000C653BEFC1220107401652160E4EEA2E01A
:1023000092AF7F01021852008E238F248582288588
:102310008327851882851983E0CEA3E0CF852882A4
:10232000852783EBC9EAC8EDCBECCA75F010C3E88A
:1023300033C8E933C9EA33CAEB33CBC3EA9EF52687
:10234000EB9FF525B35004AB25AA26EC33CCED3337
:10235000CDD5F0DAAE23AF242274E91217A674F8B3
:102360001216CA851882851983ECF0A3EDF08A084D
:102370008B099003A2E024F7C39405500675080169
:102380000224F0120C718A0A8B0BAE0AAF0BEE4FCF
:1023900070030224EDAC08AD097402121716AA826C
:1023A000AB83120D018E828F83A3A3750CFF750D75
:1023B000FF750EFF750F00780C12155C7402121772
:1023C000167510FF7511FF7512FF75130078101246
:1023D000155C780C7910121382502A780C7910123F
:1023E00015217508017509C8750A00750B00780874
:1023F000790C1213825052850C08850D09850E0A3E
:10240000850F0B80507514017515C875160075176A
:102410000085100885110985120A85130B78087943
:102420000C12152178147908121382401C750800CB
:10243000750900750A00750B0178087910121521CD
:102440007808790C1214E8800C750801750900757C
:102450000A00750B00740978081214C9750C19F577
:102460000DF50EF50F7808790C1214418E828F83CA
:10247000A3A3A3A3A3A3E0F8A3E0F97AD07B03125C
:10248000163F880C890DE4F50EF50F7808790C12CB
:1024900014E87406121716E0F8A3E0F97AD07B036B
:1024A00012163FE8FA8A0CE4F50D7808790C12133D
:1024B0008250077808790C1215219003A2E0640875
:1024C000600AE064066005E06405702D750C0D7807
:1024D0000C79081213824021750CF4750DFF750EEE
:1024E000FF750FFF7808790C1214E8800C7508004E
:1024F000750900750A00750B00851882851983E03F
:10250000F8A3E0F5838882780812159174081216F2
:10251000E07F1002185274F71217A6120D139005DF
:102520003FE064017010906245E4F0A3F053F4F3CF
:1025300043FE0C5390F3120CBFE5C654804449F59A
:10254000C6E59E547F644970F8906185740FF090E1
:10255000053DE0F47002A3E0604E90053EE06008A7
:1025600014601B14602E80407508017509009005E9
:102570003DE078081216B7E508F45280802A750805
:102580000175090090053DE078081216B7E508F4DA
:102590005290801475080175090090053DE0780897
:1025A0001216B7E508F452A079007F02021852749F
:1025B000F71217A6E9FEEAFF74016E700C7A807BB1
:1025C000009003A1E0F912119390293CE493F46088
:1025D00008E493F9120B0F800953C680E59E547FDF
:1025E00070FA120CC590053FE064017003120B27CE
:1025F00090053DE0F47002A3E0604B90053EE06082
:102600000814601A14602C803D750801750900904B
:10261000053DE078081216B7E50842808028750865
:102620000175090090053DE078081216B7E50842EB
:1026300090801375080175090090053DE078081237
:1026400016B7E50842A0120D13120C718A088B0907
:10265000A808A909E8496015E5E170FCE82414F52B
:1026600082E93400F583E0F46003E0F5E174016F82
:10267000700A7A019003A1E0F91212170225AA74D8
:10268000ED1217A68A088B098C0A8D0B741312178A
:1026900016780C1215827808790C121382751001C5
:1026A0007511C875120075130050127808790C1254
:1026B00015217810790812138250168010780C7941
:1026C000081215217810790C1213824004790180C8
:1026D0000279007F0C02185274ED1217A68A088B3B
:1026E000098C0A8D0B7413121716780C1215827848
:1026F0000C790812138240117808790C121521AA5E
:1027000008AB09AC0AAD0B8022751000751100757D
:1027100012007513017810790C12152178107908C0
:102720001214E8AA10AB11AC12AD1380A68A828BEA
:10273000837508FF7509FF750AFF750B007808128D
:10274000156F7F0402185274F51217A68C828D83C0
:1027500078081215828A828B837808121535EA244C
:1027600004F8EB3400F98C828D83A3A3A3A3E0FCCF
:10277000A3E0FD88828983C3E09CF0A3E09DF088FC
:10278000828983C3E09420A3E0944E40268A828B02
:10279000837508FF7509FF750AFF750BFF7808122E
:1027A000150E8A828B83A3A3A3A3E02420F0A3E0C9
:1027B000344EF002272D74F51217A6E9FE9004F7A7
:1027C000E0FAA3E0FBEEC333F8E433F974C928F56B
:1027D00082748039F583E02AF508A3E03BF5097897
:1027E0000812194D7A407B427C0F7D001223087439
:1027F000021216E08A088B098C0A8D0B7410780877
:102800001214B0AA08AB097F0402185274F112170F
:10281000A68A0C8B0D8C0E8D0F740F121716E0FA12
:10282000A3E0FB7411121716E0F508A3E0F5097890
:102830000812194DEA2401F508EB3400F509E4F516
:102840000AF50B780C79081213C175087175090225
:10285000780C79081213C1AA0CAB0DAC0EAD0F1297
:10286000230874021216E08B09EA450960047A0114
:1028700080027A00EC2AFCED3400FD741312171666
:10288000E0F8A3E0F9E8FEE9FFECF8EDF97A717BF6
:102890000212163F880889098E828F8378081215E4
:1028A00091ECF8EDF97A717B0212163F8A088B09D8
:1028B000740578081216B78E828F83A3A3A3A3E5AD
:1028C00008F0A3E509F07F08021852C082C083E92E
:1028D000906000F0D083D08222C0E074F21218928F
:1028E000A2AFE433FED2AFE589A2E04006E589A2BB
:1028F000E150031210C1758900758900C2C5751AAF
:1029000000EEA2E092AF7F010218F1C0E0C0D0E873
:10291000C0E0E9C0E0A9A8D2AFC2C7751A00E9A219
:10292000E7E433F8E9A2E792AFD0E0F9D0E0F8D0DD
:0A293000D0D0E032C2AF0200002256
:10293C00FFFFFFFFFFFFFFFFC082C083E9900A0487
:10294C00F0022BD374F712173AE99002E1F07C19DC
:10295C007D037AFF7BFF1208579002E274FFF0A30D
:10296C00F0A3E4F0A3F079051207DF9002E1E0F99F
:10297C001207017A757B08120A1F7F0102180C746A
:10298C00F412173A8A088B09EB548060309002E1FC
:10299C00E0F912117B8A0A8B0BAE0AAF0BEE4F607B
:1029AC00138E828F83E064B070031207F7EEFAEF98
:1029BC00FB121169AA08E5096480FB80047A007B8C
:1029CC0000022BA274F212173A74FC1216CAEAFE19
:1029DC00EBFFEE4F60387402121716EEF0A3EF12F5
:1029EC002E07ECF0A3ED122E07AA82AB831206FB86
:1029FC00E9F508707374121217161239BBE50A4503
:102A0C000B60658E828F83122A7EEE4F70057508DF
:102A1C000280557A067B001211FF8A0C8B0DA80CD4
:102A2C00A90DE8497005750813803D88828983E4F7
:102A3C00122A88A3A3EEF0A3EF123E54E50AF0A3EA
:102A4C00E50BF09002E7122B109002E76017E0FC08
:102A5C00A3E08003EAFCEBFD8C828D83122B1070BB
:102A6C00F38C828D831238E0A90874041216E002EC
:102A7C004056A3A3A3A3E0FEA3E0FF22F0A3F0889B
:102A8C008289832274F212173A890AE975F017A425
:102A9C00FEAFF09002E6E4F09002E4122B10600A14
:102AAC001212059002E4E4F0A3F0EEFAEFFB12111F
:102ABC00FF8A088B09EA4509602FEEFCEFFD7900CF
:102ACC001211579002E4E508F0A3E509F07B0080B1
:102ADC0008122AFAE4F0A3F00BEBC3950A40F2E5D6
:102AEC000A9002E6F0790080027913024056EB75E9
:102AFC00F017A4F8A9F09002E4E028FAA3E0398AD0
:102B0C0082F58322123676EA4B2274F412173A7548
:102B1C000800750900740C121716123E28FEE9FF06
:102B2C00800CE5082401F508E5093400F509C3E536
:102B3C00089CE5099D503285080A85090B740378B9
:102B4C000A1216B7EA250AF8EB350BF98882898345
:102B5C00A3A3A3A3A3A31239BBEE650A7003EF656D
:102B6C000B70BFE8FAE9FB80047A007B00802774C5
:102B7C00F412173A7900EAA2E0501B750844750963
:102B8C0081780812194D7C047D007A067B0A1207A5
:102B9C00D974021216E07F0402180CC082C0839014
:102BAC0002E7122BDA601C88828983A3A3E06A7087
:102BBC0003A3E06B8882898370E8A3A3A3A31236D6
:102BCC007280047A007B00D083D0820201321241E1
:102BDC0029E8492274EE12173A74FC1216CAEAFE5E
:102BEC00EBFF851882851983E4F0A3F0EE24021222
:102BFC0038C4EE2405122DF5EE2404F50EEF123137
:102C0C00DAE024FE603924FC604624FE605224FE87
:102C1C00605E24FE7003022CFA24FE7003022D72F7
:102C2C0024FE7003022D8124FE7003022D9024FCDF
:102C3C007003022D9F24FE7003022DAE022DEB902B
:102C4C0003007417F0A3E4122E0F120479022DEB7B
:102C5C00851882851983AC82AD831207FD022DBBCA
:102C6C00851882851983AC82AD83120803022DBBB3
:102C7C00850C08850D097402121716AC82AD83857C
:102C8C00088285098312367212071F8A0C8B0DACD1
:102C9C000CAD0DEC4D6042E4F50CF50D780C1219F1
:102CAC004D750C00750D03780C12194D750C0175D2
:102CBC000D03780C12194D74081217161219647939
:102CCC001612366C12083F74081216E0E9F50C70F7
:102CDC000B123668120491800F750C0185088285E1
:102CEC000983122DFD1238E0850C08022DBE7402EA
:102CFC00121716AC82AD83850C82850D8312367249
:102D0C0012071F8A108B11AC10AD11EC4D6043856E
:102D1C000C82850D83A3A312196475100075110321
:102D2C00781012194D751001751103781012194D88
:102D3C007408121716121964791612366C12083FA1
:102D4C0074081216E0E9F509700B12366812049734
:102D5C00800F750901850C82850D83122DFD1238AB
:102D6C00E0850908804C851882851983AC82AD8377
:102D7C00120809803A851882851983AC82AD8312BA
:102D8C00080F802B851882851983AC82AD831208BD
:102D9C0015801C851882851983AC82AD8312081BA3
:102DAC00800D851882851983AC82AD83120821E9C8
:102DBC00F508E50860298E828F83A3E06414601FF8
:102DCC00850E82850F83E0900300122E0712412599
:102DDC009003011238E0E508A3122E0F120473EED3
:102DEC00FAEFFB12079D0237CCF50CEF3400F50D12
:102DFC002212412985188285198322F08518828533
:102E0C00198322F07C007D03850A82850B831236A0
:102E1C00762274EE12173A74FC1216CA8A0A8B0BBD
:102E2C008C0E8D0FEA2405F508EB3400F5097C15A2
:102E3C007D0079007A007B03121157E5082402F516
:102E4C000CE509122DF88518828519838582108569
:102E5C008311781012194D850882850983A3A3A3C9
:102E6C00A312332212194DE5082405F510E5093497
:102E7C0000F511781012194D850C82850D831236D0
:102E8C007C12071974061216E08A108B11AE10AF63
:102E9C0011E50A2402F50AE50B1238C7EE4F700350
:102EAC00022FE48017740212171612367288828968
:102EBC0083EAF0A3EBF0900300E004F0900300E051
:102ECC00C394054003022FE4E4F510F511781012B9
:102EDC00194D7510E9751102781012194D7510EA1B
:102EEC00751102781012194D740612171612196406
:102EFC007910EEFCEFFD12366C12083F74081216B6
:102F0C00E0E9705E850882850983A3A3A3A3A3A32C
:102F1C00A3E0F89002E9E068704812332212194DD0
:102F2C007CEA7D02E5082408FAE5093400FB12115D
:102F3C005174021216E0E960298E828F83A3A3A339
:102F4C00A3123672900300E0F5107402781012167A
:102F5C00B774012510F58274033511F583EAF0A3DB
:102F6C00EBF07402121716858210858311781012FB
:102F7C00194D7402121716121964850C82850D8373
:102F8C0012413A12072574041216E08A108B11AE06
:102F9C0010AF11900300E0F5107511007402781059
:102FAC001216B774002510F874033511F98882894C
:102FBC0083A3122B107003022EA8E82403F8E93423
:102FCC0000F9EE4F6003022EB18882898374FFF002
:102FDC00A3F0900300E004F0900300E0600A1236C6
:102FEC00681204857900800B850882850983123864
:102FFC00D7790A0237CC74EA12173A74FE1216CA41
:10300C008C128D13EA2405F50CEB1242A4122A82C1
:10301C00750800750900EA2402F510EB3400F5116F
:10302C0085188285198385820A85830B780A121983
:10303C004D850C82850D83A3A3A3A31231E4121931
:10304C004DE50C2405F50AE50D1238C7780A12195E
:10305C004D850C82850D83124138120719740612A6
:10306C0016E08A0A8B0BEA450B7003023195EA24B1
:10307C0004F50EEB1231DA122A828A828B83A3A317
:10308C00A3E0F9851082851183123672120707E9C5
:10309C00F5096003023195E4F514F515781412194D
:1030AC004D7514E9751502781412194D7514EA75DD
:1030BC001502781412194D74061217161219647928
:1030CC0013AC0AAD0B85108285118312367212086F
:1030DC003F74081216E0E9F509600302319590027D
:1030EC00E9E0F8E5087009E02402900301F080178C
:1030FC00900301E0FCE82402FAE43400FBEA6C7073
:10310C0001EB6003023199850882AA82123319946B
:10311C00141233115073850E82850F83E0C0E07456
:10312C00022A1231D1D0E0F00508850E82850F837A
:10313C00A3E0C0E085080A7402250A1231D1D0E060
:10314C00F005089002E91231E412194D7CEA7D0277
:10315C0085080A7402250AFA74033400FB12113F25
:10316C0074021216E09002E9E02508F50874FF6E6F
:10317C00700374FF6F6012EE24010EEF3400FFE554
:10318C0008C39414500302302CE508601312355D0B
:10319C0085108285118312367212048B790080148B
:1031AC00E509700375090A851282851383EEF0A375
:1031BC00EFF0A90974021216E07F0E02180C8508B4
:1031CC000C7402250CF58274033400F58322340050
:1031DC00F50F850E82F58322123E672274EE1217CC
:1031EC003A74FE1216CA8C0E8D0FEA2405F50CEB00
:1031FC00122DF8750B00900300E4F0F50AEA240296
:10320C00F508EB3400F5098049900300E0FA9002D0
:10321C00E9E0F81233199417123311400D900300A2
:10322C00E0F87416C3989002E9F012332212194D8B
:10323C007CEA7D0274012AFA74033400FB12113FFC
:10324C0074021216E09002E9E0F8900300E028F016
:10325C00050AE50C2416F582E50D1231D5E0F8E5EA
:10326C000AC39840030232FA900300E0C39416504C
:10327C007DE50AC333F8E433F9E50C28FEE50D3996
:10328C00FF851882851983AC82AD838E828F831261
:10329C00367212071F8A108B11AC10AD11EC4D70E9
:1032AC0005750B018043E4F510F511781012194DDA
:1032BC007510E9751102781012194D7510EA751117
:1032CC0002781012194D7406121716121964791619
:1032DC0085088285098312367212083F740812160B
:1032EC00E0E9F50B70030232151238D380107C0024
:1032FC007D0385088285098312367212049DA90B01
:10330C0074020237CEE99400C365D03322EA28F860
:10331C00E43400F9E822E0F51075110078102274FD
:10332C00EA12173A74FC1216CA8A0C8B0D8C128D89
:10333C0013EA2405F50AEB1238C775080075090065
:10334C00E50A2402F510E50B3400F511740212178E
:10335C001685820E85830F780E12194D850A82858B
:10336C000B83A3A3A3A3123E1312194DE50A240544
:10337C00F50EE50B3400F50F780E12194D85108201
:10338C008511831238CD12366C1207197406121679
:10339C00E08A0E8B0FAE0EAF0FE50C2402F50EE596
:1033AC000D3400F50F80408882898374FFF0050886
:1033BC001231CA74FFF005089002E9E0F50C750DA6
:1033CC0000780C12194D7CEA7D0285080C740225DC
:1033DC000CFA74033400FB12113F74021216E090C5
:1033EC0002E9E02508F508EE4F60718E828F83A309
:1033FC00A3A3E0F9850E82850F831236721207079C
:10340C00E9F509EE2404122DF5E97044E4F514F500
:10341C0015781412194D7514E975150278141219D2
:10342C004D7514EA751502781412194D740812179B
:10343C00161219647911EEFCEFFD850E82850F834F
:10344C0012367212083F74081216E0E9F50960276B
:10345C00850C82850D831235531238E0E508700314
:10346C0002353912355D850E82850F831236721244
:10347C0004A3790002354E850882AA82EA9002E9FB
:10348C007009E02404900301F08022E0F89003011D
:10349C00E0F514E82404FCE43400FDEC6514700140
:1034AC00ED70C0123319941212331150B6850C8280
:1034BC00850D83E0C0E074022A1231D1D0E0F00512
:1034CC0008850C82850D83A3E0C0E01231CAD0E0E0
:1034DC0012356F85820C85830D780C12194D74048E
:1034EC0012171612196485108285118312413A1233
:1034FC00072574041216E08A0C8B0DAE0CAF0D85EB
:10350C00080C7402250CF874033400F9EE4F7003A8
:10351C000233B3851882851983E08882898312353A
:10352C006FA3E0C0E01231CAD0E00233C1E50970EC
:10353C000375090A850A82850B831235531238E00C
:10354C00A90974040231C2124129851282851383A0
:10355C0022900301E0F5F0E50884900300F07C0074
:10356C007D0322F005088518828519832274EC12DC
:10357C00173A74FE1216CA8A088B098C0E8D0FEA44
:10358C002405FEEB3400FF851882851983AC82ADCF
:10359C00838E828F8312367212071F8A0A8B0BEE70
:1035AC002418122DF5EA450B70030236431237B579
:1035BC0050328518828519831236721208338A109C
:1035CC008B11EA4511606B7912AC0AAD0B85088240
:1035DC00850983123672851082851183121738E99A
:1035EC00F50A7058E4F50AF50B780A12194D8E821B
:1035FC008F83A3A3E0F50A780A12194DEE24031267
:10360C0038C4780A12194D8E828F8312367C1208B8
:10361C004574061216E0E9F50A7021850C82850DB9
:10362C0083E0701F8508828509831236721204A903
:10363C008011750A0E8009750A018004E50A600381
:10364C001238D3850C82850D83E0600479008002EA
:10365C00A90A74021216E07F0C02180C7C007D0380
:10366C00850A82850B8312367622E0FAA3E0FB22D0
:10367C00E0FCA3E0FD85088285098312367622746E
:10368C00EE12173A74FE1216CA8A088B098C0C8D2E
:10369C000DEA2405FEEB3400FF750E0085188285BB
:1036AC001983AC82AD838E828F8312367212071F00
:1036BC008A0A8B0BEA450B70030237A11237B550FF
:1036CC00358518828519831236721208338A0E8B4F
:1036DC000FEA450F605E7912AC0AAD0B8508828546
:1036EC000983123672850E82850F83121738E9F51D
:1036FC000E60030237A48508828509831239BBAAA0
:10370C000AFB1208278A108B11A810A911E849701E
:10371C001E7AFF7BFF1208278A108B11A810A911A3
:10372C00E849606C88828983E50AF0A3E50BF075A3
:10373C000A008007750E0E805F050A9002E6E0FA1B
:10374C00E50AC39A504AE50A75F017A4FAABF0885B
:10375C00828983A3A3E02AFAA3E03BFB8A828B83B2
:10376C001238CDEC4D70D2750A17750B00780A1211
:10377C00194DEEFCEFFD12113F74021216E0EEFC37
:10378C00EFFD8508828509831236721204AF80140E
:10379C00750E098003750E01124121850C82850D71
:1037AC00831238E0A90E02330CE5082402F508E573
:1037BC00093400F5098A828B83A3A3A3E0A2E52236
:1037CC0074041216E07F0A02180C74EC12173A8C6F
:1037DC00108D11EA2405F50CEB122DF8750F00EA8B
:1037EC002402F50AEB1238C7850A82F58312367269
:1037FC001208278A088B09EA450970030238B97543
:10380C000E008071850C82850D83E06401704F8EF3
:10381C00828F83A3A31219648E828F83A3A3A3A385
:10382C00E0F512751300781212194DEE2405F512FD
:10383C00EF3400F513781212194D12366C1208453C
:10384C0074061216E0E9F50F6014850C82850D8361
:10385C00E4F01241218510828511831238E07C1727
:10386C007D007900EEFAEFFB1211578E828F83E404
:10387C00F0A3F0050E9002E6E0F8E50EC398501E9A
:10388C00E50E75F017A4F8A9F0850882850983A3C5
:10389C00A31242AE1238CDEC4D60030238108508ED
:1038AC008285098374FFF0A3F0E50F700612366C65
:1038BC001204B5A90F023663F50AEF3400F50B229A
:1038CC00A3E0FCA3E0FD228E828F83124129850E9A
:1038DC0082850F83E8F0A3E9F022C082C0839002B6
:1038EC00E2E06A7003A3E06B70067AE27B0280046C
:1038FC007A007B00022BD3C082C08378008C828D2F
:10390C0083E06A7003A3E06B7010E875F003A4F811
:10391C00A9F0EC28FAED39FB8015088C828D83A375
:10392C00A3A3E06A7003A3E06B60DF7A007B000264
:10393C002BD374F612173A1207F18A828B83E58225
:10394C00458370067A007B008007A3A3A3A31236DD
:10395C0072023FD274F212173AE9FE740E12171665
:10396C001239BB7410121716123E338C828D83E001
:10397C0064027036A312412FF50CA3E0F9A80C7465
:10398C00026870037429697021750C02750D00783A
:10399C000C12194D780812194D780A12194DEEF9BE
:1039AC0012086974061216E080027901024056E092
:1039BC00F50AA3E0F50B2274E812173A74FB121601
:1039CC00CAE9851882851983F08A168B17ECFEEDEF
:1039DC00FF751000741D121716124125741D121755
:1039EC00161238E08E828F83A3A3A3E0A2E4502D9D
:1039FC00741D1217161236721208338A828B83E5E5
:103A0C008245837003023E04790AEEFCEFFDAA1690
:103A1C00AB17121738E9F5106003023E07741F123A
:103A2C001716123E3374211217161239BB74231257
:103A3C001716E0F50EA3E0F50F8E828F83E064027B
:103A4C006003023DB2A3124125850882850983A338
:103A5C00858212858313EE2406122DF588828983C4
:103A6C00E0FAA3E0F9EA2400F514E439F51578142A
:103A7C001219D7010000280128A73A070002286C68
:103A8C003B0328D93A0029A33C0129CE3C02296FDB
:103A9C003C0329A33C04294D3DB23DE50E450F6086
:103AAC0003023DAD850C82850D83123E28FAE9FB9D
:103ABC008A828B83E0850A82850B83123E5E121903
:103ACC004D8A828B83A3E0FCA3E0023D37E50E45D3
:103ADC000F6003023DAD850A82850B837401F012E1
:103AEC003E3B850882850983F07C007D008E828FA9
:103AFC0083A3A3A3A3E02401FAA3E03400FB1207E1
:103B0C001FEA4B60418A828B83E02402F8850A828B
:103B1C00850B83E028F0EA2404F8EB3400F9888262
:103B2C008983E0851282851383123E70123E5E12E9
:103B3C00194D8A828B831238CCE5082403FAE509E7
:103B4C003400FB023D3C850A82850B83E02404F0A3
:103B5C007C047D007900AA12AB13121157023E07A8
:103B6C00E50E450F6003023DAD123E3BFEA3E0FFA8
:103B7C00850A82850B837404F0EE8508828509839F
:103B8C00F0EF851282851383F07403121716AC8242
:103B9C00AD83EEFAEFFB12071F8A0C8B0DEA450D75
:103BAC007003023C508A828B83A3A3122A7E740179
:103BBC0012171685820E85830F780E12194D740517
:103BCC001217161219647CFF7DFF1207257404125C
:103BDC0016E08B0FEA450F7033850C82850D83122E
:103BEC003E1312194D850C82850D83A31219647C2A
:103BFC00027D007AD87B8112055174041216E0E91B
:103C0C00700A740112171674FFF0A3F08E828F8362
:103C1C00E064027039750C02750D00780C12194DA8
:103C2C008E828F831238CCE5082404FAE50934001F
:103C3C00FB12113F74021216E0850A82850B83E099
:103C4C00240280097401121716EEF0A3EFF0740130
:103C5C00121716123E24F07401121716A3123E1CF2
:103C6C00023DA7E50E450F6003023DAD850C828534
:103C7C000D831238CDAA16AB1712085D850A828502
:103C8C000B837402F0EA850882850983F085128221
:103C9C00851383EB023DAAE50E450F6003023DAD93
:103CAC00123E3BF8A3E0F9850A82850B837402F07F
:103CBC00E8850882850983F0E985128285138302E1
:103CCC003DAA850C82850D83123672121139EAFCDD
:103CDC008C82A882C3950EE4950F405FE8650E7048
:103CEC0002E50F70047C008022851882851983E020
:103CFC00FAE50E2AFAE50F3400FBC3EA98EB9400C0
:103D0C005003E08005E50ECCC39CFCEC850A828553
:103D1C000B83F08C0A750B00780A12194D850C82F6
:103D2C00850D83E0250EFCA3E0350FFDAA08AB0939
:103D3C0012113F74021216E0023E07751007023E84
:103D4C0007E50E450F705A850C82850D83124125AF
:103D5C00850A82850B837407122A8A123E1C122A4A
:103D6C008AA3E0851282851383F0E82402FAE934F1
:103D7C0000FB8A828B83123E1C123E4B123E24A304
:103D8C00123E54123E2DF0E82405F8E93400F9886F
:103D9C00828983123E2DA3123E70A3A3A3A3F080AD
:103DAC005A75100B8055741D1217161236721207A5
:103DBC00F18A828B83E5824583603D124125880C14
:103DCC00890DE8450D6031780E12194D780A1219DB
:103DDC004D780812194D7406121716E0F9EEFCEF27
:103DEC00FDAA16AB17850C82850D83121738740645
:103DFC001216E0E9F510800375100EA91074051267
:103E0C0016E07F1002180CE0F50E750F00780E22EC
:103E1C00E085088285098322123E7A22124129E824
:103E2C0022123E7AA3A322E0F508A3E0F50922852D
:103E3C000C82850D83E0F8A3E0F5838882E022A351
:103E4C00A3F08A828B83A322F088828983A3A3A305
:103E5C00A322F08A828B83123E6722E0F50A750B4F
:103E6C0000780A22F088828983A3123E7A22E085A8
:103E7C000882850983A3A32274EE12173A74FE12EA
:103E8C0016CA8A0A8B0BECFAEDFB7414121716E0A7
:103E9C00F510A3E0F5117416121716E0FE74181243
:103EAC001716E0F50EA3E0F50F851882851983AC83
:103EBC0082AD8312071F8A0C8B0DEA450D60498574
:103ECC0018828519831236721207F18A828B83E568
:103EDC00824583602FA3A3123E33E5084509602475
:103EEC00780E12194D781012194DEEF9AC0CAD0D6F
:103EFC00AA0AAB0B85088285098312173874041241
:103F0C0016E08006790E8002790102330C74F612E9
:103F1C00173A74FE1216CA740C121716123E288524
:103F2C001882851983F07401121716E9F0E4F5086C
:103F3C00F509780812194D750802780812194D7494
:103F4C0004121716858208858309780812194D12F8
:103F5C00084574061216E074021216E0806874F7B5
:103F6C0012173AEAFEEBFF89087C197D0312085DF3
:103F7C00EA5402600BA908EEFAEFFB120713800259
:103F8C00790102298674F612173A74FF6A70037469
:103F9C00FF6B70168C828D83123FD7E4F08C828D70
:103FAC0083A3A3A3123FD7A3801812082D8A088BD2
:103FBC0009A808A909E849600D8882898374FF1251
:103FCC002A88A3A3E4F07F0202180C74FFF0A3F07C
:103FDC008C828D83A3A32274F612173A12082D8AB1
:103FEC00828B83E58245836006A3A3E0FA80027A84
:103FFC00007B0080D174F212173A8A088B09ECFE10
:10400C00EDFF740E121716E0F50A12082D8A0C8BB0
:10401C000DA80CA90DE8497026EEFCEFFD7AFF7B8C
:10402C00FF12082D8A0C8B0DA80CA90DE849700401
:10403C007911801688828983E508F0A3E509F08858
:10404C00828983A3A3E50AF079007F0602180C7419
:10405C00EE12173AEAFEEBFF8C088D09890C7414EA
:10406C001217161241257416121716123672750D88
:10407C0000E84960030241197402650C60030241B7
:10408C0014741212171612412FFCA3E0F9EC240041
:10409C00F50EE439F50FEAF4F8EBF4F9EC58F8E521
:1040AC000F59F9E849705CE5082406F8ED3400F97D
:1040BC00880A890B8882F58312413A12085D8A10AE
:1040CC008B11E50E65107004E50F65116042780EDA
:1040DC0012194D850A82850B8312413A12086374BA
:1040EC00021216E0E9F50D7027780E12194D8508AD
:1040FC0082850983A3A312413812087B740212161D
:10410C00E0800D750D808008750D0D8003750D0B0D
:10411C00A90D0237D18E828F8312412922E0F8A398
:10412C00E0F92212412988828983E022A3A3E0FCD2
:10413C00A3E0FDEEFAEFFB2274E812173A74E712D3
:10414C0016CA851882851983EAF0A3EBF08C168DBC
:10415C0017890E7508007509007431121716E0F5F1
:10416C0012A3E0F5137433121716E0F514A3E0F55F
:10417C00157435121716E0F50FE50975F003A4F860
:10418C00A9F08518828519831242AEE0F47003A35E
:10419C00E0F47003024291EE2402F50CEF1242A4FB
:1041AC00E0700302429185160A85170B780A1219E2
:1041BC004DAC14AD15AA12AB131207E5740212160E
:1041CC00E08A0A8B0BEA450B7003024291E4F5106E
:1041DC00F511781012194D74061217168582108578
:1041EC008311781012194D740912171685821085D7
:1041FC008311781012194D851282851383A3A3A302
:10420C00A31219647914AC0AAD0B8E828F8312360B
:10421C007212083F74081216E0E97069850A8285EB
:10422C000B83A3A3A3A312412574021217161238F1
:10423C00E0850C82850D83E0A2E05018A90E740273
:10424C00121716AC82AD838E828F831236721207D0
:10425C0037E94208850C82850D83E0A2E15026E502
:10426C000FF50A780A121951A90E7403121716AC1D
:10427C0082AD838E828F83123672120731740112D3
:10428C0016E0E942080509E509C39402500302410E
:10429C0085A9087419023E0B3400F50D850C82F5C6
:1042AC008322E028FEA3E039FF8E828F832274F2F2
:1042BC0012173AEAFEEBFF890B7401650B600E7462
:1042CC0002650B706A7901120A3DE97062EEFAEF31
:1042DC00FB1208278A088B09EA45096047750A0012
:1042EC00800B7C177D007900121157050A9002E6AD
:1042FC00E0F8E50AC3985021E50A75F017A4F8A96F
:10430C00F0850882850983A3A3E028FAA3E039FB92
:10431C008A828B83122BDA70C98508828509837493
:10432C00FFF0A3F07C197D03EEFAEFFB12085702A5
:10433C00405674F212173A8A088B09ECFEEDFF74A2
:10434C000E1217161239BB900A04E0F4603D7A097C
:10435C007B00121163EA4B60328A828B8374B1F05A
:10436C00A3E4123E4DA3123E4BA3E508F0A3E509CE
:10437C0012439AEEF0A3EF12439AA3A3E50AF0A31B
:10438C00E50BF0900A04E0F912116F024056F08A26
:10439C00828B83A3A3A3A3A322C082C0839061902A
:1043AC007404F0A37448F0A37402F090618074401C
:1043BC00F09061BC7403F09061877419F0906265A1
:1043CC00741BF0906249E0C3941390619C400A7492
:1043DC0009F090606674018007740DF0906066E4DB
:1043EC00F090619A7433F0A37455F09061A0743A14
:1043FC00F090053FE064017009C2919003A67467C8
:10440C0080059003A67461F0902942E49390618634
:10441C00F090293CE493F46027E493540FF89061F6
:10442C0085E0686012E5C654804449F5C6E59E54A3
:10443C007F644970F8E8F053C680E59E547F70FAAB
:10444C007905120D9D024600C082C083E9540FF914
:10445C00906185E0696012E5C654804449F5C6E573
:10446C009E547F644970F8E9F053C680E59E547FF2
:10447C0070FA024600C082C083E5A8F853A87E906B
:10448C006181E4F0A3F0A3F0C2BA539AFEC289751D
:10449C009B00C2C275E90075910075BF0075A9112A
:1044AC0075B905906181F0A374C0F0A3E4F0D2BAA1
:1044BC00439A0174805842A8024600C082C083749B
:1044CC00F81216CA9003A4E0F8A3E0F9E8497003C7
:1044DC000245F59003A4E0544060237908851882C6
:1044EC00851983AA82AB83120BFF851882851983E9
:1044FC00AA82AB831208ED9003A4E054BFF0E05401
:10450C00806010790C7A657B05120BFF9003A4E098
:10451C00547FF0E0A2E0503190619A7433F0A374B0
:10452C0055F09061A0743AF090053FE06401700979
:10453C00C2919003A6746780059003A67461F01273
:10454C0008F39003A4E054FEF0E054026031906153
:10455C009A743FF0A3745AF09061A0747FF09005A8
:10456C003FE064017009D2919003A67471800590AC
:10457C0003A6746AF01208F39003A4E054FDF0E073
:10458C0054046013902940E493906186F01208F96A
:10459C009003A4E054FBF0E054086013902941E42C
:1045AC0093906186F01208F99003A4E054F7F0E0C0
:1045BC0054106013902942E493906186F01208F92C
:1045CC009003A4E054EFF0E05420600A1208F99034
:1045DC0003A4E054DFF0A3E05401600D120B27128A
:1045EC0008FF9003A5E054FEF074081216E0024692
:1045FC0000F0A3F0D083D08202013274EC12173A8F
:10460C0074F41216CA851882851983AC82AD837531
:10461C00838175827774041215DD90294093F460C0
:10462C0003024793907808E0C39402500302477347
:10463C007404121716AC82AD8375838175822A744B
:10464C00081215DD851882851983858212858313DE
:10465C007404121716AC82AD83750EFF750FFF7FB5
:10466C00FF7E00750C48750D78801574086E70030C
:10467C0002470774096E7003024707740A6E607B69
:10468C00850C82850D8378081215828C828D83A906
:10469C0009E50AC9F88810741878081214B0E510E6
:1046AC004508F8C3E098A3E099850C82850D8378C2
:1046BC000812158240188C828D8374187808121495
:1046CC00B0E5104508F8E0C398F8A3E0801C741816
:1046DC0078081214B0E5104508FAE9FB8C828D833A
:1046EC00E0F8A3E0F9EAC398F8EB99F9C3E8950E62
:1046FC00E9950F5006880E890FEEFF0EE50C240489
:10470C00F50CE50D3400F50DEEC394135003024681
:10471C007774FF650E700474FF650F60238F087447
:10472C000278081216B774482508F5827478350992
:10473C00F5837808121582851282851383E508F0BB
:10474C00EC2402FCED3400FD851282851383A385D5
:10475C008212858313740C121716E5826C7003E5B4
:10476C00836D6003024665750801750900780812AF
:10477C00194D7402121716AC82AD837A507B0A1253
:10478C00109D74021216E0740C1216E07F0C0218C5
:10479C000CC082C0839061AE7468F0A3746AF09010
:1047AC00624574FBF0A304F053F4FD43FE02900544
:1047BC003F7401F09061A0E0643A90619A702374A8
:1047CC0033F0A37455F09061A0743AF07401640155
:1047DC007009C2919003A6746780289003A6746137
:1047EC008021743FF0A3745AF09061A0747FF07430
:1047FC000164017009D2919003A674718005900335
:10480C00A6746A0245FF7F0802180CC082C0839010
:10481C0004F1E06401700A9004F6E06004790C8005
:10482C00027900024600C082C08375E1F19004F465
:10483C00E0605B14600914605F14605714705E12C2
:10484C000B399004EAE0F97AEB7B04120D1F7AD64F
:10485C007BBE7C897D8E120D557A557B557C557DA2
:10486C0000120D2B9004F5E0F9120D377901120DA1
:10487C00919004E8E0F8A3E0C82416F582E834002F
:10488C00F5837451F0A3740BF07900024600120BFF
:10489C003F80AF120B4580AA120B4B80A57912807A
:1048AC00EA74F012173A75D90D9004D5E0A2E0E441
:1048BC00331313F89004EAE0C4333354C048440172
:1048CC00F5D978E8790488828983A3A3A3E0F5D984
:1048DC0088828983A3A882A983E864EE7003E964C3
:1048EC000470E378D5790488828983A3E0F5D988AC
:1048FC00828983A3A882A983E864DB7003E964043A
:10490C0070E575E1959004D5E0F97AD67B04120D2B
:10491C0025900A2674E5F0A3740AF0A37447F0A35B
:10492C00740CF0A37447F0A3740CF0A37447F0A3B9
:10493C00740CF0A374EBF0A3740AF0A37447F0A307
:10494C00740CF0A37403F0A3740BF0900A34744746
:10495C00F0A3740CF0A37447F0A3740CF0A3744789
:10496C00F0A3740CF0A37447F0A3740CF0A3744779
:10497C00F0A3740CF0A37447F0A3740CF09004F43F
:10498C00E064019004E87012E0F8A3E0F5838882FB
:10499C00A3A37508007509088010E0F8A3E0F5835F
:1049AC008882A3A3750804750900750A00750B00AD
:1049BC0078081214FB750CFF750DFF750EFF750F43
:1049CC00007808790C1215499004E8E0F8A3E0C8C7
:1049DC00240EF582E83400F58378081215919004C2
:1049EC00E8E0F8A3E0C82414F582E83400F58374F9
:1049FC0013F09003A27402F002481274F712173AE3
:104A0C009004FAE02407F5D99004EAE0C433335457
:104A1C00C0F5D978E8790488828983A3A3A3E0F54B
:104A2C00D988828983A3A882A983E864EE7003E9FC
:104A3C00640470E39004FAE0601F78E87904FAE803
:104A4C002413F582E93400F583E0F5D98882898353
:104A5C00A3A882A9831AEA70E690051AE02407F548
:104A6C00D99004EAE0C4333354C04404F5D978E84F
:104A7C00790488828983A3A3A3E0F5D988828983EA
:104A8C00A3A882A983E864EE7003E9640470E39040
:104A9C00051AE0601F78E87904FAE82433F582E916
:104AAC003400F583E0F5D988828983A3A882A98391
:104ABC001AEA70E675E195900A2674F1F0A3740A6F
:104ACC00F0A37447F0A3740CF0A37447F0A3740C18
:104ADC00F0A37447F0A3740CF0A374EBF0A3740A66
:104AEC00F0A37447F0A3740CF0A37403F0A3740B3D
:104AFC00F0900A347447F0A3740CF0A37447F0A33D
:104B0C00740CF0A37447F0A3740CF0A37447F0A3D7
:104B1C00740CF0A37447F0A3740CF0A37447F0A3C7
:104B2C00740CF09004E8E0F8A3E0C8240EF582E8D9
:104B3C003400F58374FFF0A3F0A3F0A3F09004E825
:104B4C00E0F8A3E0C82414F582E83400F58374126D
:104B5C00F09003A27401F0FF02180C74F712173ACC
:104B6C009004FAE02407F5D99004EAE0C4333354F6
:104B7C00C04402F5D978E8790488828983A3A3A379
:104B8C00E0F5D988828983A3A882A983E864EE70B2
:104B9C0003E9640470E39004FAE0601F78E8790498
:104BAC00FAE82413F582E93400F583E0F5D988821C
:104BBC008983A3A882A9831AEA70E675E195900A05
:104BCC002674FDF0A3740AF0A374FDF0A3740AF02C
:104BDC00A374FDF0A3740AF0A374FDF0A3740AF09F
:104BEC00A374FDF0A3740AF0A374FDF0A3740AF08F
:104BFC00A37403F0A3740BF0900A347447F0A374FD
:104C0C000CF0A37447F0A3740CF0A37447F0A374D6
:104C1C000CF0A37447F0A3740CF0A37447F0A374C6
:104C2C000CF0A37447F0A3740CF09004E8E0F8A324
:104C3C00E0C8240EF582E83400F58374FFF0A3F08D
:104C4C00A3F0A3F09004E8E0F8A3E0C82414F582E4
:104C5C00E83400F5837414F09003A27404F0024F4E
:104C6C002E74F712173A9004FAE02407F5D9900441
:104C7C00EAE0C4333354C04406F5D978E8790488A3
:104C8C00828983A3A3A3E0F5D988828983A3A88210
:104C9C00A983E864EE7003E9640470E39004FAE01D
:104CAC00601F78E87904FAE82413F582E93400F5FA
:104CBC0083E0F5D988828983A3A882A9831AEA7034
:104CCC00E690051AE02407F5D99004EAE0C43333E2
:104CDC0054C04404F5D978E8790488828983A3A365
:104CEC00A3E0F5D988828983A3A882A983E864EE1E
:104CFC007003E9640470E390051AE0601F78E879AA
:104D0C0004FAE82433F582E93400F583E0F5D98818
:104D1C00828983A3A882A9831AEA70E675E195902B
:104D2C000A2674F7F0A3740AF0A37447F0A3740C6A
:104D3C00F0A37447F0A3740CF0A37447F0A3740CA5
:104D4C00F0A37447F0A3740CF0A37447F0A3740C95
:104D5C00F0A37403F0A3740BF0900A347447F0A31F
:104D6C00740CF0A37447F0A3740CF0A37447F0A375
:104D7C00740CF0A37447F0A3740CF0A37447F0A365
:104D8C00740CF0A37447F0A3740CF09004E8E0F8F2
:104D9C00A3E0C8240EF582E83400F58374FFF0A379
:104DAC00F0A3F0A3F09004E8E0F8A3E0C82414F515
:104DBC0082E83400F5837415F09003A27403F002BA
:104DCC004F2EC082C0839004E8E0F8A3E0C824060C
:104DDC00F582E83400F583E40245FD74F712173AC6
:104DEC009003D0E0F875F003A4C8AAF02AF974D2A5
:104DFC0028F8740339F9E82405FAE93400FB8A82AF
:104E0C008B83E0FCA3E0FD88828983A3A3A3A3A3E7
:104E1C00A3A3A3A3ECF0A3EDF088828983A3A3A39F
:104E2C00A3A3A3A3E024FFF8A3E034FFF98A828BA9
:104E3C0083E8F0A3E9F0024F2E74F712173AEAFE5A
:104E4C00EBFF9061D0E06003024F2275D90E75D94B
:104E5C000375D904EE248BF582EF3400F583E582DB
:104E6C002408F8E5833400F9E0F5D9A3E8658270ED
:104E7C0003E9658370F2EE2483F582EF3400F58349
:104E8C00E5822404F8E5833400F9E0F5D9A3E8655C
:104E9C00827003E9658370F275E1957908EE248BD5
:104EAC00FAEF3400FB120BF37904EE2483FAEF349F
:104EBC0000FB120BF37C00EEF8EFF9ECFAC3E49A6A
:104ECC00FA95E0FBEE2AFAEF3BFBEA248AF582EB3B
:104EDC003400F583E0C0E0E824AAF582E93400F55B
:104EEC0083D0E0F00C88828983A3A882A983ECC3C9
:104EFC00940840C7EE246FF582EF3400F583E0F898
:104F0C00A3E0F9EE2471F582EF3400F583E8F0A309
:104F1C00E9F07901800279008008F0EEA2E092AF0E
:104F2C0079007F0102180CC082C08375D90275D933
:104F3C000375D90575E195EA246FF582EB3400F51C
:104F4C0083E0F8A3E0F9EA2471F582EB3400F583F1
:104F5C00E8F0A3E9F0790102460074F612173AEA78
:104F6C00FEEBFF9005457406F0750845750905784C
:104F7C000812194D7C017903120C3B74021216E0D5
:104F8C0075D90675D903758245758305E0F5D9A3E6
:104F9C00E582644A7004E583640570F075E19590D0
:104FAC0003A2E06408701EEE246FF582EF3400F566
:104FBC0083E0F8A3E0F9EE2471F582EF3400F58379
:104FCC00E8F0A3E9F0790102523474F612173AEAC8
:104FDC00FEEBFF9061D0E070667801900545740B94
:104FEC00F09003A2E06407701975084575090578FF
:104FFC000812194D7C017903120C3B74021216E055
:10500C007805740128F5D975D90375824575830522
:10501C00E8FAE0F5D9A31AEA70F875E195EE246F79
:10502C00F582EF3400F583E0F8A3E0F9EE2471F596
:10503C0082EF3400F583E8F0A3E9F079018002797E
:10504C000002523474F712173AEAFEEBFF75D903DB
:10505C0075D90375D90DEE24DDF582EF3400F58397
:10506C00E0F5D975E1957904120D5BEE246FF582AC
:10507C00EF3400F583E0F8A3E0F9EE2471F582EF4C
:10508C003400F583E8F0A3E9F07901024F2E74F6B1
:10509C0012173AEAFEEBFF9061D0E0F87480C398E7
:1050AC00FAEE2482F582EF3400F583E06004780494
:1050BC0080027800E8240BF8EAC398500302515F91
:1050CC007D09900545EDF0EE24E2F8EF3400F97A15
:1050DC00467B057C0888828983E08A828B83F088F2
:1050EC00828983A3A882A9838A828B83A3AA82AB99
:1050FC00831CEC70E0EE2482F582EF3400F583E043
:10510C00601D750845750905780812194D7C0979DB
:10511C0003EEFAEFFB120C3B74021216E07D0D74D9
:10512C00012DF5D975D9037582457583058D08E078
:10513C00F5D9A31508E50870F675E1957904120DFB
:10514C005BEE241DF582EF3400F583E4F0A3F079D7
:10515C00018002790002523474F612173AEAFEEB1F
:10516C00FF9061D0E0F87480C398FAEE2482F58247
:10517C00EF3400F583E06004780480027800E824C2
:10518C0008F8EAC398500302523278069005457429
:10519C000CF09003BFE0900546F09003C0E0900542
:1051AC0047F09003C1E0900548F09003C2E09005F1
:1051BC0049F09003C3E090054AF0EE2482F582EFAB
:1051CC003400F583E0601B750845750905780812F5
:1051DC00194D7C067903EEFA120C3B74021216E0A0
:1051EC00780A740128F5D975D9037582457583053C
:1051FC008808E0F5D9A31508E50870F675E19579EE
:10520C0004120D5BEE246FF582EF3400F583E0F8A9
:10521C00A3E0F9EE2471F582EF3400F583E8F0A3F6
:10522C00E9F07901800279007F0202180C74F61201
:10523C00173AEAFEEBFF9061D0E0F87480C398FA5D
:10524C00EE2482F582EF3400F583E060047804806C
:10525C00027800E82404F8EAC39850030253137848
:10526C0002900545E8F0EE24F4F582EF3400F58366
:10527C00E0900546F0EE2482F582EF3400F583E0F1
:10528C00601B750845750905780812194D7C027963
:10529C0003EEFA120C3B74021216E0780674012825
:1052AC00F5D975D9037582457583058808E0F5D95C
:1052BC00A31508E50870F675E195EE2473F582EFF9
:1052CC003400F583E4F0EE247FF582EF3400F583AF
:1052DC00E4F0EE241DF582EF3400F583E4F0A3F046
:1052EC007904120D5BEE240DF582EF3400F583E0AA
:1052FC00F8A3E0F9EE2471F582EF3400F583E8F0C1
:10530C00A3E9F079018002790002523474F6121785
:10531C003A9061D0E0F87480C398FCEA2482F5825C
:10532C00EB3400F583E06004780480027800E82414
:10533C0004F8ECC398405B79029005457407F0EAD9
:10534C0024F5F582EB3400F583E0900546F0EA2471
:10535C0082F582EB3400F583E06018750845750919
:10536C0005780812194D7C0209120C3B74021216B6
:10537C00E07906740129F5D975D9037582457583D1
:10538C0005E9F8E0F5D9A318E870F875E19579010D
:10539C008002790002523474F512173AE9FCA2AF7C
:1053AC00E433F50AC2AF7D0080010DEA246EF5826C
:1053BC00EB3400F583E0F8EDC398501A8D08EA251C
:1053CC0008F8EB3400F9E8246AF582E93400F58337
:1053DC00E06C70D68024EA246EF8EB3400F9E0FE21
:1053EC00EA2EFAEB3400FBEA246AF582EB3400F582
:1053FC0083ECF088828983E004F0E50AA2E092AFA6
:10540C007F0302180C74F612173AA2AFE433FDC2F4
:10541C00AFEA246EF582EB3400F583E014F07C00E7
:10542C0060368C08EA2508F8EB3400F9E8246BF5B3
:10543C0082E93400F583E0C0E0E8246AF582E934BF
:10544C0000F583D0E0F00CEA246EF582EB3400F525
:10545C0083E0F8ECC39840CAEA246DF582EB340083
:10546C00F58374FFF0EA2469F582EB3400F583E4EC
:10547C00F0EDA2E092AF025234C082C083E5A8F8EE
:10548C00C2AFEA246AF582EB3400F583E9F0EA2432
:10549C0069F582EB3400F583E4F0E8A2E7A2E79229
:1054AC00AF02460074F312173AEAFEEBFFECFAED8A
:1054BC00FB8A828B83A3A3A3A3E0541FF0EE2436B4
:1054CC00F582EF3400F583E4F0F50AEEFCEFFD8A8B
:1054DC00828B83E0C0E0EC245DF582ED3400F58333
:1054EC00D0E0F0750B00E50A33333354F8F50C8A31
:1054FC00828B83E0F508750900E50B780812169885
:10550C00E508A2E0502FEE2436F8EF3400F988823B
:10551C008983E0F508EE2508F508EF3400F509E578
:10552C00082438F582E5093400F583E50CF088820F
:10553C008983E004F0050B050CE50BC3940840AF20
:10554C00050A8A828B83A3AA82AB838C828D83A368
:10555C00AC82AD83E50AC3940550030254DB7F058E
:10556C0002180C74F712173A9003CEE06401700322
:10557C000256CD7A009003D4E060030256CD74013C
:10558C00F0A3E4F0A3F090043404F0900439F0900C
:10559C0003D7E4F0A3F0A3F0A3F09003E104F090A0
:1055AC000407E4F09003EAF0A3F0A3F0A3F0A3F057
:1055BC00A3F0A3F0900451F0900445F090043A74D9
:1055CC0080F0A3E4F0900440F09004BCF0A3F0A3AE
:1055DC00F0A3F0A3F0A3F0A3F0A3F09004C5F09017
:1055EC000454F09004A4F0A3F0A3F0A3F0A3F0A350
:1055FC00F0A3F0A3F0A3F0A3F09004B0F09004B2E9
:10560C00F09004AEF09004C8F0A3F0A3F0A3F0A3C4
:10561C00F0A3F0A3F0A3F078CE7903E8246EF58222
:10562C00E93400F58374FFF00A88828983A3A88289
:10563C00A983EAC3940440E37ACE7B0378DC790433
:10564C0088828983E0C0E0EA2461F582EB3400F5BE
:10565C0083D0E0F088828983A3A882A9838A828B75
:10566C0083A3AA82AB83E864E17003E9640470D07D
:10567C007ACE7B0378B5790388828983A3E0C0E076
:10568C00EA24E6F582EB3400F583D0E0F0888289D9
:10569C0083A3A882A9838A828B83A3AA82AB83E883
:1056AC0064BD7003E9640370CF9003CEE004F06432
:1056BC000170089003D6E09003D0F07AD27B03807F
:1056CC00047A007B00024F2EC082C0839003D5E485
:1056DC00F09003D4F09003CEF0A3F0A374FFF07518
:1056EC00E1F1024600C082C083780079009003D5B6
:1056FC00E0600478D2790388828983A3A3A3A3E012
:10570C00F902460074F612173AEAFEEBFFEE246338
:10571C00F582EF3400F583E0F8A3E0F9E849700373
:10572C000257B5EE2463F8EF3400F97A007B00A23F
:10573C00AFE433F508C2AF88828983E0FCA3E0FDB7
:10574C00EC4D603A88828983E0FAA3E0FB8A828B75
:10575C0083E0FCA3E0FD88828983ECF0A3EDF08A62
:10576C00828B83E4F0A3F088828983E0FCA3E0FDC4
:10577C00EC4D700A88828983A3A3E4F0A3F0E508BA
:10578C00A2E092AF1211C39004E2E004F09004E3A3
:10579C00E004F0EE2463F582EF3400F583E0F8A327
:1057AC00E0F9E849600302572F8E828F83A3A3A3ED
:1057BC00E0600F8E828F83A3A3A3E4F09003CFE06D
:1057CC0014F09003CEE014F070069003D074FFF048
:1057DC008E828F83A3A3E4F09004E1E0700D90031C
:1057EC00CFE0640170057900120D3DEEFAEFFB126B
:1057FC000C6B02523474F712173AEAFEEBFF8E82EE
:10580C008F83A3A3A3A3E0FA7B00120941EEFAEF66
:10581C00FB120BBD120C53024F2EC082C08378B505
:10582C00790388828983A3E4F088828983A3A88280
:10583C00A983E864BD7003E9640370E69003B67451
:10584C00010245FF74F612173AEAFEEBFFEC240353
:10585C00F8ED3400F988088909EC2407F8ED3400D8
:10586C00F9E8FCE9FD8C828D83E0F8A3E0F985086A
:10587C0082850983E0FAA3E0FB12163FEE240DF5B6
:10588C0082EF3400F583E8F0A3E9F08C828D83E09D
:10589C00F8A3E0F9850882850983E0FAA3E0FB12FE
:1058AC00163F8B09EA45096013EE240DF582EF349F
:1058BC0000F583E02401F0A3E03400F002523474CC
:1058CC00F612173AEAFEEBFFEE242EF582EF3400C7
:1058DC00F583E0FCA3E0FD780079FAECFAEDFB121D
:1058EC00163FEE246FF582EF3400F583E8F0A3E960
:1058FC00F0780079FAECFAEDFB12163F8B09EA45C9
:10590C00096013EE246FF582EF3400F583E0240177
:10591C00F0A3E03400F002523474EC12173AEAFEB1
:10592C00EBFF74141217167808121582120CFB8AEE
:10593C000C8B0D8C0E8D0F751002751100751200ED
:10594C00751300780C79101214E87510FF7511FF9F
:10595C007512FF780C7910121549780C1219498EB2
:10596C00828F83E0F8A3E0F5838882A3A31215A0AD
:10597C0012267F74041216E0E96003025A898E82A3
:10598C008F83E02402F8A3E03400F9E8FAE9FB8AFB
:10599C00828B83780812150E8A828B837508FF75AB
:1059AC0009FF750AFF750B00780812156FEE240BB2
:1059BC00F582EF3400F583C082C0838E828F83A37F
:1059CC00A3A3A3A3E02401F8A3E03400F9D083D06F
:1059DC0082E0687003A3E06970057901025A8B8E2E
:1059EC00828F83A3A3A3A3A3A3A3E02401F0A3E02A
:1059FC003400F0EE2473F582EF3400F583E064019B
:105A0C007036EE2474F582EF3400F583E0F8A3E0F1
:105A1C00F98E828F83A3A3A3A3A3A3A3E06870032F
:105A2C00A3E0697013EE2474F582EF3400F583E083
:105A3C002401F0A3E03400F0EE247FF582EF340073
:105A4C00F583E064017036EE2480F582EF3400F5C6
:105A5C0083E0F8A3E0F98E828F83A3A3A3A3A3A36F
:105A6C00A3E0687003A3E0697013EE2480F582EF65
:105A7C003400F583E02401F0A3E03400F079000257
:105A8C00479874F612173AE9FEECFFEA2462F582A5
:105A9C00EB3400F583E064016003025B379061D066
:105AAC00E0F508EA2482F582EB3400F583E060042B
:105ABC007804800278007480C39508FC95E0FDEFB3
:105ACC0028F8E43400F9E82402F8E93400F9EC98F9
:105ADC00ED99A2D265D033404E740A121716E0F538
:105AEC0008A3E0F509EA2482F582EB3400F583E0A3
:105AFC006015780812194DEFFCEEF9120C3B74028C
:105B0C001216E074042FFF74012FF5D98ED9EF60B3
:105B1C000F850882850983F8E0F5D9A318E870F899
:105B2C0075E195790080067907800279FF0252347D
