:020000040000FA
:060000000201070221DFEE
:03002B0002261694
:0300530002225234
:03006B000225E784
:1000830002204BE5C754F84401F5C779012200006B
:100093000080FB120086B900030200F1E4792178A5
:1000A30008B800028004F709D8FCE479297802B87B
:1000B30000028004F709D8FCE490028178C3790731
:1000C3008002F0A3D8FCD9FA7A437B0990013778F0
:1000D3002979048015E493A3AD82AE838A828B834E
:1000E300F0A3AA82AB838D828E83D8E9D9E7758288
:1000F300A37583FF740212011975829175830074CD
:100103000012011975D00075813F751881751902A8
:10011300759F00020096C09FF59FE473D09F22D085
:1001230083D082C09FE493C0E0740193C0E0740263
:1001330093F59F22FF0000B4000028002800283018
:1001430075A000A000A000A00000080008E001F0D6
:10015300001000100010001000100010005000509C
:1001630000500010001000D0070000000000000F36
:100173000001000500307507001000010081FF0039
:10018300000000FF5D067B066306FF020202080211
:100193005000A0000000E8030222810100008A81D0
:1001A3000298810100009A09029E81010000B302B6
:1001B3000298810100009B0902CE81010000C9025F
:1001C3000298810100009C0902A281010000CB0278
:1001D3000298810100009D0902A481080000CC025D
:1001E3000298810100009E0902A6810100009F0977
:1001F300FF0100FF20022281010000878102988114
:10020300010000030A02C6810000000000029C8175
:1002130003000019032D0C2D0C2D0C2D0C2D0C2D72
:100223000C2D0C2D0C2D0C2D0C2D0C2D0C2D0CAF81
:100233000EC70EA90E020202020202020202010D01
:1002430000000010010222810100009381029881C5
:10025300010000440A02A0810100004007029881C6
:10026300010000450A02B88101000015810298814E
:10027300010000460A02C081010000078102988143
:10028300010000470A02C281010000B78002988181
:10029300010000480A02C481010000A58002988180
:1002A300010000490A02D081010000938002988175
:1002B3000100004A0A02CC8101000081800298817A
:1002C3000100004B0A02CA81010000F980029881F3
:1002D3000100004C0A02C8810100004D0A01E80335
:1002E300053F100A0A43686172616374657269733A
:1002F30074696320310002436861726163746572DB
:1003030069737469632032000843686172616374BE
:1003130065726973746963203300104368617261A5
:10032300637465726973746963203400024368619E
:1003330072616374657269737469632035000222A4
:10034300810100009081029881010000F30A02AC50
:10035300810300000408029A81010000F40A029854
:1003630081010000050B02AE810100000508029A1D
:1003730081010000060B029881010000170B02B0F7
:10038300810200000608029A81010000180B0298FE
:1003930081010000290B02B2810000000708029CC2
:1003A300810300000808029A810100002A0B0298C9
:1003B300810100003B0B02B4810400000E08029A85
:1003C300810100003C0B104B6579205072657373FB
:1003D300205374617465000222810100008D810243
:1003E3009881010000D50B02BC81000000130802B4
:1003F3009C810300001408029A81010000D60BFFC0
:10040300FFFF000130750302010600000000000039
:1004130000000000000000000000000000000000D9
:10042300000000000000FFFF0600800CE8030B093A
:10043300466C69705377697463680201050302F0BF
:10044300FF53776974636820466C69707065720046
:10045300000000000000F9120000FF12120122BF89
:100463008F03120122D68F03120122079003120178
:10047300224290031201226C9003120122969003F0
:10048300120122AD9003120122C49003120122DB58
:100493009003120122049103120122179103120106
:1004A300222D91031201224091031201226791032D
:1004B300120122D5A502120122D9A602120122118C
:1004C300A70212012234A7021201223FA70212013E
:1004D3002262A70212012271A80212012246A90276
:1004E300120122C1A90212012249AA021201228485
:1004F300AA02120122BBAA0212012249AB02120173
:100503002222AC0212012282AC021201228DAC0221
:100513001201220CAD021201220FAD0212012212AE
:10052300AD02120122A1AD02120122A4AD021201F9
:1005330022D4AD02120122FEAD02120122ECAE0260
:100543001201229EAF021201223EDF021201226635
:10055300DF0212012294DF02120122CBDF02120119
:100563002229E00212012274E002120122BFE002FA
:10057300120122FFE00212012245E102120122735D
:10058300E10212012230E2021201223AE2021201D6
:100593002247E2021201227AE20212012246E30218
:1005A30012012252E3021201226AE30212012274AF
:1005B300E302120122C79C03120122D59C031201FC
:1005C30022ED9C03120122059D0312012267B9014A
:1005D30012012213BA011201228EBA01120122AFB3
:1005E300BB01120122EBBB0112012294BC011201D7
:1005F300227BBD01120122DFBE0112012236BF019F
:10060300120122B7BF01120122A7C001120122F475
:10061300C0011201227AC101120122ACC1011201EF
:1006230022C0C30112012202C40112012220C4010B
:10063300120122A3C40112012277C5011201223F34
:10064300C60112012217C802120122EAC8021201CE
:100653002293C902120122E6C90212012296CA029A
:1006630012012222CB021201220ECC021201223DE0
:10067300CC0212012250CD0212012298CD021201A6
:10068300226DCE02120122A9CE02120122C5CE0290
:10069300120122D99E0312012208FA021201221E1C
:1006A300FA0212012244FA0212012260FB02120131
:1006B300226AFB021201229FFC0212012297FD0211
:1006C30012012217DA0212012247DB021201227AF7
:1006D300DB02120122C4DB021201228BDD021201B2
:1006E30022976D00120122016E00120122606F0039
:1006F300120122706F001201229D6F00120122F479
:100703006F001201229D7000120122A471001201D8
:10071300226E7200120122CE7300120122117400A4
:10072300120122B67400120122037500120122295C
:1007330075001201223777001201223C7700120163
:10074300224179001201228E7900120122017A00DE
:10075300120122347A00120122D67A001201227F7A
:100763007B00120122B77B00120122BA7B00120127
:1007730022027C00120122427C00120122997C0099
:10078300120122EC8C03120122048D031201224C6C
:100793008D03120122628D03120122A98D0312011E
:1007A30022BD8E031201224A8F03120122958F0369
:1007B3001201224C26001201225826001201229314
:1007C3002600120122D826001201229827001201C6
:1007D300221E2800120122832800120122AF2800C2
:1007E300120122E82800120122262B001201220AFC
:1007F3002D00120122F02E001201223330001201CB
:1008030022813200120122933300120122DE3400CE
:10081300120122EE35001201220B3600120122468C
:100823003600120122683600120122CB3600120173
:10083300228C3B00120122213C00120122723C0057
:10084300120122993C00120122EB3C001201220901
:100853003D00120122633D001201224C3E001201B1
:1008630022C23F00120122464000120122FBE30292
:1008730012012205E40212012248E402120122635A
:10088300E402120122F3E4021201221BE502120127
:100893002258E5021201228FE502120122B8E50275
:1008A3001201222DE60212012242E6021201225710
:1008B300E60212012288E6021201229CE6021201DC
:1008C30022C1E602120122FBE60212012227E702FD
:1008D3001201225FE702120122DEE7021201222740
:1008E300E80212012251E8021201227CE8021201FD
:1008F30022B29703120122D48D02120122028E0228
:10090300120122508F021201223090021201224F53
:100913009002120122CC90021201220F91021201C5
:1009230022659202120122269302120122AD950240
:100933001201224E96021201224497021201224111
:1009430098021201229B9902120122269A02120195
:1009530022579603120122C0960312012214970311
:100963001201223B97031201226C97031201222DDD
:10097300ED021201229AED02120122E1ED021201AF
:1009830022F9EE02120122F5EF02120122D8F0023F
:100993001201220FB00212012251B00212012223CE
:1009A300B102120122FCB102120122F6B2021201BB
:1009B30022D8B30212012241B402120122F7B40277
:1009C3001201226BB502120122D7B50212012200D5
:1009D300B6021201227AB60212012213B7021201E1
:1009E3002278B7021201228DB702120122D3B70275
:1009F300120122ECB70212012251B8021201225451
:100A0300B802120122F389031201221B8A03120185
:100A130022598A03120122178B031201227E8B03B0
:100A23001201229A8B03120122C28B03120122F2BA
:100A33008B03120122018C031201227E8C0312010B
:100A430022A48C0312012205AA01120122E3AB01A5
:100A530012012215AE0112012251AE011201227EB2
:100A6300AE0112012268AF01120122B3AF011201DC
:100A730022FEAF0112012210B00112012250B00177
:100A830012012285B001120122D3B0011201220208
:100A9300B10112012225B10112012272B101120129
:100AA30022F7B10112012211B40112012250B60141
:100AB30012012291B60112012233B80112012274EC
:100AC300B801120122E7B8011201223DB901120156
:100AD30022D7F201120122D5F3011201226EFA018B
:100AE3001201228FFC011201225AFE01120122C2BD
:100AF300FF01120122AD40001201225C41001201EC
:100B030022A24100120122E2420012012278440093
:100B1300120122F244001201220D45001201228823
:100B23004500120122E2460012012242480012014E
:100B330022484900120122A94A00120122C24A0096
:100B4300120122204B001201220E4C0012012241FD
:100B53004C00120122B14C001201222B4D00120154
:100B630022754D001201223F4E00120122144F0044
:100B7300120122F34F001201227E5000120122ECD7
:100B830050001201226051001201228B5100120108
:100B9300224A5200120122AF5300120122CC530009
:100BA300120122EB5300120122DC54001201220134
:100BB30055001201222B5500120122A655001201E5
:100BC3002200560012012269570012012217580011
:100BD3001201225858001201220080021201224EF3
:100BE30080021201225A800212012238810212016C
:100BF300226981021201229A81021201221A8202BF
:100C0300120122528202120122A48202120122E163
:100C13008202120122FE840212012224870212019F
:100C2300220F8902120122F98A02120122F17F00A6
:100C3300120122F29501120122229601120122FBD6
:100C43009C01120122809E011201227DA401120146
:100C53002265A501120122A2A501120122C5A50147
:100C6300120122F6A501120122FFA5011201220998
:100C7300A601120122F7A601120122EDA70112011A
:100C830022885800120122875C001201228D5C0029
:100C9300120122C86300120122E1680012012298A6
:100CA3008303120122928403120122068503120197
:100CB30022448503120122B88503120122318603DF
:100CC3001201223A86031201224686031201225B95
:100CD3008603120122998603120122AF86031201B1
:100CE300229AF102120122A7F102120122C1F1029A
:100CF30012012200F2021201223EF202120122A389
:100D0300F202120122B8F202120122C3F20212010C
:100D130022D0F202120122E7F202120122F5F202BC
:100D230012012200F3021201220CF3021201221B10
:100D3300F30212012226F30212012249F3021201E5
:100D430022F0F30212012200F4021201221AF40229
:100D530012012237F40212012253F4021201227803
:100D6300F40212012283F40212012298F402120106
:100D730022ACF4021201220DF50212012213F50234
:100D830012012219F5021201221FF5021201223764
:100D9300F5021201226AF502120122C9D6011201DB
:100DA300224DD701120122FCD7011201225BD90186
:100DB3001201227CDB0112012268DC011201229D57
:100DC300DC01120122BFDC011201226EDD011201DE
:100DD3002266DF011201228FDF0112012221E001CD
:100DE30012012253E00112012260E001120122B735
:100DF300E001120122DDE0011201224AE3011201A6
:100E0300224DE401120122A5E40112012258C80176
:100E130012012262C90112012249CA01120122539D
:100E2300CA0112012275CA0112012281CA011201EB
:100E3300221ACC0112012249CC0112012265CD01F3
:100E4300120122BECD0112012224CF01120122037D
:100E5300D0011201225FD001120122CCD001120174
:100E63002207D10112012246D101120122FFD3012F
:100E730012012219D401120122A5D401120122B3B5
:100E8300D4011201220CD5011201221AD50112013B
:100E9300228DD501120122F1D5011201223BD60187
:100EA300120122A79A02120122C99A02120122EF09
:100EB3009C0212012204A0021201221CA1021201AF
:100EC30022CFA102120122B1A2021201222B93030B
:100ED300120122509303120122C293031201229D95
:100EE300C002120122A6C002120122AFC0021201E7
:100EF3002286C10212012237C3021201226DC302EC
:100F0300120122A7C302120122DDC302120122171A
:100F1300C4021201224BC40212012277C40212013D
:100F230022C0C402120122FAC40212012243C502E2
:100F33001201229BC502120122D0C5021201222BEB
:100F4300C60212012265C602120122B6C6021201AE
:100F530022ECC60212012226C70212012254C70242
:100F630012012277C7021201229E9D03120122CA97
:100F73009D03120122259E031201222F9E031201BB
:100F8300223F9E03120122DF8603120122048703FC
:100F93001201222E87031201226FA003120122D312
:100FA3008101120122338401120122E98501120118
:100FB30022DB8601120122628701120122E28701EC
:100FC3001201220F8801120122308B01120122AC7F
:100FD3008B011201229B8C01120122D38C0112017D
:100FE30022168D01120122C28E01120122178F01D6
:100FF300120122648F01120122D28F01120122F900
:101003008F01120122139001120122289101120172
:101013002238910112012263920112012285920169
:10102300120122BB9201120122629401120122A138
:101033009401120122CD95011201220080031201B5
:1010430022458003120122628003120122138103CD
:101053001201226681031201224282031201225FDE
:101063008303120122799103120122BE910312011B
:1010730022129203120122919203120122F292038D
:10108300120122FEA00312012226A00312012265EF
:10109300A003120122ECFF01120122499E03120157
:1010A30022599E031201226E9E03120122D69E0331
:1010B300120122D999031201225D9A03120122C35C
:1010C3009A03120122CB9803120122F29803120110
:1010D300224899031201229A9903120122A4E802D9
:1010E300120122B8E80212012231E9021201220A96
:1010F300EA02120122C8EC02120122D69B0312015A
:1011030022FF9B03120122289C03120122409C030D
:10111300120122829C031201223ACF0212012244BD
:10112300CF0212012284CF02120122CDCF0212017B
:101133002207D00212012261D00212012280D002C2
:1011430012012289D002120122DAD00212012203F3
:10115300D1021201220DD10212012279D102120110
:101163002207D20212012260D2021201228ED2027F
:101173001201220ED30212012251D3021201228C38
:10118300D3021201229ED302120122BDD302120105
:1011930022C6D3021201228BD402120122D094035D
:1011A30012012225950312012293950312012203B2
:1011B3009603120122867D00120122B07D001201E6
:1011C30022857E00120122797F00120122DC9A031C
:1011D300120122A1FD02120122D7FD0212012210E7
:1011E300FE0212012269FF021201225D9F03120116
:1011F30022739F031201227D9F0312012278B802FA
:1012030012012235B90212012270B9021201229889
:10121300B902120122FAB90212012246BA021201DC
:10122300229FBA021201222EBB0212012230BC02FB
:10123300120122EBBD021201226DBE02120122D263
:10124300BE02120122E9BE02120122F2BF02120102
:101253002230C002120122E7F50212012200F60237
:10126300120122A4F602120122E4F602120122FD67
:10127300F60212012230F7021201227DF702120157
:1012830022B1F702120122F3F702120122FBF90243
:10129300120122C79F03120122F3E4011201227CEF
:1012A300E80112012204EA011201225BEA011201A0
:1012B300227AEA01120122F8EA0112012296EC01D4
:1012C3001201227AED0112012264F101120122348A
:1012D300F201120122B7D40212012209D70212012C
:1012E3002235D7021201224DD702120122E5D7027D
:1012F3001201226ED80212012225D902120122CA3A
:10130300D902120122B4A003120122E0A003E06675
:10131300701008A3E066700A08A3E066700408A3CF
:10132300E06622C3E7960809E7960809E7960809E5
:10133300E79622C3E09608A3E09608A3E09608A3E5
:10134300E09622C008C3E096F50808A3E096420899
:1013530008A3E096420808A3E09645087001D3D09D
:101363000822080808EAC0E0EBC0E086F0E7A4FA28
:10137300180986F0E7A42AFA180986F0E7A42AFADE
:10138300180986F0E7A42AFA1986F0E7A4FBE5F02A
:101393002AFA190886F0E7A42BFBE5F03AFA1908B4
:1013A30086F0E7A42BFBE5F03AFA18180986F0E774
:1013B300A4C5F02BFBE43AFA1908E7C5F0C6A42646
:1013C300F6E5F03BFBE43AFA1886F0E7A4F6E5F01D
:1013D3000826F6E43B08F6E43A08F6D0E0FBD0E052
:1013E300FA22E4CFC0E0E4CEC0E0E4CDC0E0E4CC38
:1013F300C0E075F020E626F608E633F608E633F695
:1014030008E633F6181818EC33FCED33FDEE33FE23
:10141300EF33FFC3EC9709ED9709EE9709EF97199F
:101423001919400FFFEC97FC09ED97FD09EE97FEA4
:10143300191906D5F0BFECF709EDF709EEF709EF37
:10144300F7191919D0E0FCD0E0FDD0E0FED0E0FFA1
:10145300221214BC1818181213E51214AB19191917
:10146300221214AB191919080808E618181820E7EE
:10147300E01213E51214BC18181822090909E71918
:10148300191920E7DC080808E618181820E70302F2
:1014930013E51214BC1818181213E51214BC18180B
:1014A300181214AB19191922E4C397F709E497F733
:1014B30009E497F709E497F722E4C396F608E4965C
:1014C300F608E496F608E496F6226017080808C6BC
:1014D300A2E713C618C613C618C613C618C613C682
:1014E300D5E0E9226016080808C6C313C618C61358
:1014F300C618C613C618C613C6D5E0EA2270090873
:101503000808226016181818C6C333C608C633C69F
:1015130008C633C608C633C6D5E0EA22E627F6086E
:1015230009E637F60809E637F60809E637F622E052
:1015330026F608A3E036F608A3E036F608A3E0365D
:10154300F622E026F008A3E036F008A3E036F00820
:10155300A3E036F022C3E697F60809E697F60809F2
:10156300E697F60809E697F622C3E096F008A3E0AB
:1015730096F008A3E096F008A3E096F022E657F66B
:101583000809E657F60809E657F60809E657F6226A
:10159300E056F608A3E056F608A3E056F608A3E0E3
:1015A30056F622E056F008A3E056F008A3E056F002
:1015B30008A3E056F022E0F608A3E0F608A3E0F65D
:1015C30008A3E0F622E6F008A3E6F008A3E6F00895
:1015D300A3E6F022E0FAA3E0FBA3E0FCA3E0FD22F4
:1015E300EAF0A3EBF0A3ECF0A3EDF022E0F8A3E024
:1015F300F9A3E0FAA3E0FB22E8F0A3E9F0A3EAF001
:10160300A3EBF022CAC0E0E6F0A308DAFAD0E0FACE
:1016130022CAC0E0E0A3C582CCC582C583CDC58301
:10162300F0A3C582CCC582C583CDC583DAE6D0E0FD
:10163300CA22C3E498F8E499F91216768026C3E423
:101643009AFAE49BFBE920E7E9121676E498F8E4BA
:1016530099F922C3E498F8E499F9121676E498F814
:10166300E499F9C3E49AFAE49BFB22EB20E7CFE980
:1016730020E7E0B90010BB0008E88AF084F8AAF07C
:1016830022E4FBC8FA22EB70227B10C833C8C933AB
:10169300C9335007C39AC3DBF280069A50012ADB91
:1016A300EAC833F4C8C933F4C9FA2275F008E4C8A8
:1016B30033C8C933C933C99AC99B5004C92AC93B22
:1016C300D5F0ECFBC833F4C8E4C9FA22600D08C6B0
:1016D300A2E713C618C613C6D5E0F322600C08C6EA
:1016E300C313C618C613C6D5E0F422700422600DD6
:1016F30018C6C333C608C633C6D5E0F41822251866
:1017030010AF08F518400C15198008F5184002159C
:1017130019D2AF2200C0D0251810AF08F518500C0D
:1017230005198008F51850020519D2AFD0D022252B
:1017330018F58210AF08F518400C15198008F51834
:1017430040021519D2AF851983222518F582E43595
:1017530019F583222518F8E43519F9222518FAE436
:101763003519FB222518FCE43519FD22E4732518ED
:10177300C582C0E0E51934FFC583C0E0E518C39511
:101783008224F810AF088583198582188008858321
:1017930019858218D2AFCEF0A3E520F0A37808E62E
:1017A30008F0A3DEFAEFF0A3E58124FAF8E608F0E7
:1017B300A3E608F0A3E608F0A30808E608F0A3E60A
:1017C30008F0A315811581D0E0FED0E0F81581154E
:1017D300811581E8C0E0EEC0E0222518C582C0E093
:1017E300E51934FFC583C0E0E518C3958224F910D9
:1017F300AF08858319858218800885831985821827
:10180300D2AFCEF0A3E520F0A37808E608F0A3DE7C
:10181300FAEFF0A3E58124FBF8E608F0A3E608F06D
:10182300A30808E608F0A3E608F0A315811581D004
:10183300E0FED0E0F815811581E8C0E0EEC0E022BB
:10184300851983851882E0A3FEE0A3F5207808E0DC
:10185300A3F608DFFAE0A3FFE0A3C0E0E0A3C0E043
:10186300E0A3C0E0E0A3C0E0E0A3C0E010AF0885C0
:1018730082188583198008858218858319D2AFD091
:1018830083D08202011F851983851882E0A3FEE0BD
:10189300A3F5207808E0A3F608DFFAE0A3FFE0A3AE
:1018A300C0E0E0A3C0E0E0A3C0E0E0A3C0E010AF6D
:1018B300088582188583198008858218858319D243
:1018C300AFD083D08222C0D02518C582C0E0E519ED
:1018D30034FFC583C0E0E518C3958224F310AF0835
:1018E3008583198582188008858319858218D2AF6C
:1018F300C8F0A3E9F0A3EAF0A3EBF0A37908E709A2
:10190300F0A3D8FAECF0A3EDF0A3EEF0A3EFF0A36D
:10191300D0E0F0A3D0E0F0A3D0E0F0A3E520F0A363
:10192300E5F0F0A322851983851882E0C0E0A3E0E7
:10193300F9A3E0FAA3E0FBA37808E0F608A3DFFA33
:10194300E0FCA3E0FDA3E0FEA3E0FFA3E0C0E0A36F
:10195300E0C0E0A3E0F5D0A3E0F520A3E0A3F5F019
:1019630010AF0885831985821880088583198582BD
:1019730018D2AFD082D083D0E0F8D0E032740480A4
:1019830006740280027401C0E0F404121732D0E03E
:10199300121607227404800474028000CCC0E0EDA8
:1019A300C0E0E518C39CCCAD1950011D10AF068CE7
:1019B300188D1980068C188D19D2AF121614D0E029
:1019C300FDD0E0FC22D083D082E9C0E0E493A3C33E
:1019D30086F0C5F095F0F908E493A386F0C5F09579
:1019E300F0700BE493A3C3994005E9048002A3E4D8
:1019F30075F002A42582F582E5F03583F583D0E006
:101A0300F9E493A3C0E0E493C0E022D083D082EC56
:101A1300C0E0EDC0E0E493A3FCE493A3FDED4C60D0
:101A23000D121A5AEC24FFFCED34FFFD80EFE49312
:101A3300A3FCE493A3FDED4C600D121A99EC24FF73
:101A4300FCED34FFFD80EFD0E0FDD0E0FCE493A398
:101A5300C0E0E493C0E022C0E0C3E49396087401BD
:101A6300939618400FE49366700808740193661800
:101A730070007019A3A3C3E4939608740193961896
:101A8300A3A3400DD0E0D0E0D0E0021A4AA3A3A361
:101A9300A3A3A3D0E022C0E0C0F088F0E493667073
:101AA300080874019366187000A8F0A3A3700BD004
:101AB300F0D0E0D0E0D0E0021A4AA3A3D0F0D0E007
:101AC3002274F51217DDEAFEEBFFEE2434F8EF344F
:101AD30000F988088909EE2435F582EF3400F5838F
:101AE300E0F8EE2437F582EF3400F583E0F50AECF5
:101AF300850AF0A4FCAAF0850AF0EDA42AFDE82CDF
:101B0300F8E43DF97A257B00121676EA850882858A
:101B13000983F0F8740758F97401B900028004C30B
:101B230033D9FCFAE8131313541FF8EE28F8EF34F3
:101B330000F9E8245DF582E93400F583E05A600892
:101B4300EE2434F582EF802CEE2434F582EF34005A
:101B5300F583E0C0E0EE2436F582EF3400F583E050
:101B6300F5F0D0E084A8F0EE28F8EF3400F9E8248B
:101B730038F582E93400F583E0F97F0402188974AB
:101B8300F51217DDEAFEEBFFEE2434F582EF3400A5
:101B9300F583E0C0E0EE2435F582EF3400F583D021
:101BA300E0F08E828F83A3A3A3A3A3A3A3C082C0C9
:101BB300838E828F83A3A3A3A3A3E0F8A3E0F9D02A
:101BC30083D082E0C398F508A3E099F509EE247F5A
:101BD300F582EF3400F583E064017069EE2480F54B
:101BE30082EF3400F583E0F8A3E0F98E828F83A3BC
:101BF300A3A3A3A3A3A3E0FCA3E0FD8E828F83A3EF
:101C0300A3A3A3A3E0FAA3E0FBC3EA9CEB9D5010BC
:101C1300C3EC98ED99402EC3EA98EB995027800EB8
:101C2300C3EA98EB994007C3EC98ED9940177CDC25
:101C33007D04EEFAEFFB120B8BEE247FF582EF347B
:101C430000F583E4F0EE2434F8EF3400F9E8FCE91E
:101C5300FDEE2435F582EF3400F583E0F8EE24370A
:101C6300F582EF3400F583E0F50AE508850AF0A470
:101C7300F508AAF0850AF0E509A42AF509E825087C
:101C8300F8E43509F97A257B00121676EA8C828D01
:101C930083F0F8740758F97401B900028004C33360
:101CA300D9FCFAE8131313541FF8EE28F8EF3400A5
:101CB300F9E8245DF582E93400F583E05A6008EE23
:101CC3002434F582EF802CEE2434F582EF3400F5D2
:101CD30083E0C0E0EE2436F582EF3400F583E0F5CF
:101CE300F0D0E084A8F0EE28F8EF3400F9E82438C7
:101CF300F582E93400F583E0F91225D9021B7DC092
:101D030082C083851882851983E0F8A3E0F9C3EACA
:101D13009CEB9D5010C3EC98ED99401BC3EA98EBE4
:101D2300995014800EC3EA98EB994007C3EC98EDE1
:101D3300994004790180027900D083D08222EAC3DA
:101D43009CFAEB9DFB2274EF1217DD9003A2E06473
:101D5300086005E06407702A9061C8E0602490037E
:101D6300D0E0F4601DE0F875F003A4C8AAF02AF9E6
:101D730074D228FE740339FF8E828F83A3A3A3E05A
:101D83007003021E79906060E0C0E0EE2468F58283
:101D9300EF3400F583D0E0F0750C45750D0575083B
:101DA30000750900E5D914F50AE5D95403F50E6069
:101DB300177403650E605CE50A6010EE2467F58214
:101DC300EF3400F583E07003021E5E900540E0648B
:101DD30001602AEE2482F582EF3400F583E060048B
:101DE300780480027800850A08E508C398FA95E02C
:101DF300FB120A598A088B09EA45097005120D7D01
:101E03008074EE2482F582EF3400F583E070048A57
:101E13000C8B0DE50A6012850C82850D83F50BE5AD
:101E2300D9F0A3150BE50B70F6EE2482F582EF349F
:101E330000F583E0604474FC250AF50A780C121956
:101E430084AC0AA90EEEFAEFFB120C2774021217E8
:101E530017E97026AA08AB091211A3793D8E828F68
:101E630083A3A3A3A3E0FA7B0012092DEEFAEFFBF1
:101E7300120BA3120C39790080747403650E60563B
:101E8300850A107511007810121984AC0CAD0DAAD7
:101E930008AB09120C037402121717EE2468F582BB
:101EA300EF3400F583E064807004747F8001E0F513
:101EB3000C780C121988E50EF50C780C121988A908
:101EC3000AAC08AD099003D0E0FA7B001208F17464
:101ED3000212171780139003A2E06408600BAC0C86
:101EE300AD0DEEFAEFFB120C93120D8979017F0A07
:101EF30002188974F51217DD74FC121701EAFEEB60
:101F0300FF8908A2AFE433F509C2AF806AEE246308
:101F1300F8EF3400F97A007B00A2AFE433F50AC28C
:101F2300AF88828983E0FCA3E0FDEC4D603A8882B0
:101F33008983E0FAA3E0FB8A828B83E0FCA3E0FDC4
:101F430088828983ECF0A3EDF08A828B83E4F0A38B
:101F5300F088828983E0FCA3E0FDEC4D700A88825F
:101F63008983A3A3E4F0A3F0E50AA2E092AF1211E0
:101F7300A39004E3E004F0EE2463F582EF3400F56C
:101F830083E0F8A3E0F9E849603DEE2463F582EFCE
:101F93003400F583E02402FAA3E03400FBEA2402D0
:101FA300F50AEB3400F50B780A1219848A828B83C5
:101FB300E0FCA3E0F9EEFAEFFB120BC77402121771
:101FC30017E97003021F109004E3E060639004E4D8
:101FD300E0F89004E3E0C398500C74026508705075
:101FE3009004E5E0604A8E828F83A3A3A3A3E085D8
:101FF3001882851983F0A3E4F09004E3E0F87402F7
:1020030012174DE8F0A3E4F09004E3E0F89004E243
:10201300E028F0740212174DAC82AD8385188285D7
:102023001983AA82AB8379011208FD9004E3E4F0DB
:10203300E509A2E092AF7404121717021B7D00009A
:10204300008521878522C622C0E0C0D0E8C0E0E930
:10205300C0E0EAC0E0EBC0E0ECC0E0EDC0E0EEC001
:10206300E0C008C009C00AC00BC082C083C0F0A290
:10207300AFE433FEC2AF759B00906182E0A2E050F3
:1020830012E591A2E0500C7591FE74016521700375
:10209300121D49E0A2E55051E591A2E5504B75911F
:1020A300DF9003A2E064076005E064087023740115
:1020B3006521703579019003D0E0FA75F003A4CA65
:1020C300A8F028FB74D22AFA74033BFB121EF68095
:1020D30018E0640D70139003C4E004F064287002E8
:1020E300E4F07A00E0F9120D8F906182E0A2E640FD
:1020F30003022192E591A2E640030221927591BF6A
:102103009003A2E064057008120CBD120CC9800391
:10211300120CC3752100120D1DE99003A3F0790081
:10212300120D11120B017A017B009003A1E0F91249
:102133001173907803E064427055900544E014F005
:10214300704DC2AF12214A00782AD0E0F618D0E0D1
:10215300F6E59F540770057509FF800375097FC471
:10216300C0E07829E6F50808E65509F509740B7807
:10217300081216DFD0E02508F8906270E0A2E7406D
:10218300F8E8C333906272F0906270E0D2E0F090AE
:102193006181E0A2E35009E5E9A2E3500375E9F7A1
:1021A300A3E0A2E75009E591A2E7500375917FEE02
:1021B300A2E092AFD0F0D083D082D00BD00AD00966
:1021C300D008D0E0FED0E0FDD0E0FCD0E0FBD0E0D2
:1021D300FAD0E0F9D0E0F8D0D0D0E032C0E0C0D0FF
:1021E300C082C083906183E0A2E05009E5BFA2E012
:1021F300500375BFFEE0A2E15009E5BFA2E1500321
:1022030075BFFDE0A2E25009E5BFA2E2500375BF2E
:10221300FBE0A2E35009E5BFA2E3500375BFF7E07B
:10222300A2E45009E5BFA2E4500375BFEFE0A2E5C5
:102233005009E5BFA2E5500375BFDFE0A2E65009F0
:10224300E5BFA2E6500375BFBFD083D0828088C0AC
:10225300E0C0D0E8C0E0E9C0E0EAC0E0EBC0E0ECF9
:10226300C0E0EDC0E0C0F0E5A7A2E6500FE5A1A2F3
:10227300E6500953A7BF75A1BF1222B7E5A7A2E590
:10228300500CE5A1A2E5500653A7DF75A1DFE5A732
:10229300A2E15009E5A1A2E1500375A1FDE5A7A2C2
:1022A300E2500CE5A1A2E2500653A7FB75A1FBD0B7
:1022B300F00221C874F81217DD7521019003A2E022
:1022C30064067015120C578A828B83A3A3A3A3A35E
:1022D300A3E0FAA3E0FB120CABA2AFE433FED2AF50
:1022E3009003A8E0640170187A207B009003A1E0BA
:1022F300F912127B7A207B009003A1E0F912117985
:10230300906182E0D2E6F0900541E0602185C6222B
:1023130080169003A7E064017008E5C654F84405ED
:10232300F5C653BEFC1220447401652160E4EEA29D
:10233300E092AF7F01021889008E238F24858228C3
:10234300858327851882851983E0CEA3E0CF85286E
:1023530082852783EBC9EAC8EDCBECCA75F010C3BD
:10236300E833C8E933C9EA33CAEB33CBC3EA9EF592
:1023730026EB9FF525B35004AB25AA26EC33CCED11
:1023830033CDD5F0DAAE23AF242274ED1217DD8AF4
:10239300088B098C0A8D0B741312174D780C1215C8
:1023A300B97808790C1213267510017511C87512C6
:1023B3000075130050127808790C121558781079AB
:1023C3000812132650168010780C790812155878C5
:1023D30010790C12132640047901800279007F0CD6
:1023E30002188974ED1217DD8A088B098C0A8D0B8C
:1023F300741312174D780C1215B9780C790812134F
:102403002640117808790C121558AA08AB09AC0AB2
:10241300AD0B802275100075110075120075130144
:102423007810790C1215587810790812151FAA1014
:10243300AB11AC12AD1380A68A828B837508FF752E
:1024430009FF750AFF750B0078081215A67F0402B1
:10245300188974F51217DD8C828D8378081215B9EB
:102463008A828B83780812156CEA2404F8EB340013
:10247300F98C828D83A3A3A3A3E0FCA3E0FD888250
:102483008983C3E09CF0A3E09DF088828983C3E045
:102493009420A3E0944E40268A828B837508FF75AF
:1024A30009FF750AFF750BFF78081215458A828BA1
:1024B30083A3A3A3A3E02420F0A3E0344EF00224DB
:1024C3003B74F51217DDE9FE9004F7E0FAA3E0FB95
:1024D300EEC333F8E433F974D928F582748039F5FF
:1024E30083E02AF508A3E03BF50978081219847AFA
:1024F300407B427C0F7D0012233C74021217178A23
:10250300088B098C0A8D0B741078081214E7AA083B
:10251300AB097F0402188974F11217DD8A0C8B0D45
:102523008C0E8D0F740F12174DE0FAA3E0FB74119C
:1025330012174DE0F508A3E0F5097808121984EAAB
:102543002401F508EB3400F509E4F50AF50B780CE2
:102553007908121365750871750902780C790812E8
:102563001365AA0CAB0DAC0EAD0F12233C74021213
:1025730017178B09EA450960047A0180027A00EC97
:102583002AFCED3400FD741312174DE0F8A3E0F9B3
:10259300E8FEE9FFECF8EDF97A717B021216768812
:1025A3000889098E828F8378081215C8ECF8EDF933
:1025B3007A717B021216768A088B097405780812E1
:1025C30016EE8E828F83A3A3A3A3E508F0A3E509E8
:1025D300F07F08021889C082C083E9906000F0D0C0
:1025E30083D08222C0E074F21218C9A2AFE433FE92
:1025F300D2AFE589A2E04006E589A2E150031210BB
:10260300D7758900758900C2C5EEA2E092AF7F013C
:10261300021928C0E0C0D0E8C0E0E9C0E0A9A8D210
:10262300AFC2C7E9A2E7E433F8E9A2E792AFD0E08B
:0F263300F9D0E0F8D0D0D0E032C2AF02000022E0
:10264400FFFFFFFFFFFFFFFFC082C083E9900A0284
:10265400F00228DB74F7121771E99002E1F07C199B
:102664007D037AFF7BFF1208439002E274FFF0A31C
:10267400F0A3E4F0A3F079051207CB9002E1E0F9AE
:102684001206ED7A617B08120A0B7F01021843746B
:10269400F41217718A088B09EB548060309002E1C0
:1026A400E0F912115B8A0A8B0BAE0AAF0BEE4F6096
:1026B400138E828F83E064B070031207E3EEFAEFA7
:1026C400FB121149AA08E5096480FB80047A007BA7
:1026D400000228AA74F212177174FC121701EAFEA0
:1026E400EBFFEE4F6038740212174DEEF0A3EF12B9
:1026F4002B0FECF0A3ED122B0FAA82AB831206E78B
:10270400E9F5087073741212174D1236C3E50A45C1
:102714000B60658E828F83122786EE4F70057508D5
:102724000280557A067B001211DF8A0C8B0DA80CEF
:10273400A90DE8497005750813803D88828983E4F2
:10274400122790A3A3EEF0A3EF123B5CE50AF0A3DB
:10275400E50BF09002E71228189002E76017E0FCFE
:10276400A3E08003EAFCEBFD8C828D8312281870B1
:10277400F38C828D831235E8A908740412171702AA
:102784003D5EA3A3A3A3E0FEA3E0FF22F0A3F08891
:102794008289832274F2121771890AE975F017A4E9
:1027A400FEAFF09002E6E4F09002E4122818600A0A
:1027B4001211E59002E4E4F0A3F0EEFAEFFB12113B
:1027C400DF8A088B09EA4509602FEEFCEFFD7900EA
:1027D4001211379002E4E508F0A3E509F07B0080CC
:1027E40008122802E4F0A3F00BEBC3950A40F2E5CB
:1027F4000A9002E6F0790080027913023D5EEB75DF
:10280400F017A4F8A9F09002E4E028FAA3E0398ACA
:1028140082F5832212337EEA4B2274F41217717507
:102824000800750900740C12174D123B30FEE9FFC5
:10283400800CE5082401F508E5093400F509C3E531
:10284400089CE5099D503285080A85090B740378B4
:102854000A1216EEEA250AF8EB350BF98882898309
:10286400A3A3A3A3A3A31236C3EE650A7003EF6563
:102874000B70BFE8FAE9FB80047A007B00802774C0
:10288400F41217717900EAA2E0501B750844750927
:102894008178081219847C047D007A047B0A12076B
:1028A400C574021217177F04021843C082C08390B4
:1028B40002E71228E2601C88828983A3A3E06A707D
:1028C40003A3E06B8882898370E8A3A3A3A31233D4
:1028D4007A80047A007B00D083D08202011F123EEA
:1028E40031E8492274EE12177174FC121701EAFEE2
:1028F400EBFF851882851983E4F0A3F0EE2402121D
:1029040035CCEE2405122AFDEE2404F50EEF122E2A
:10291400E2E024FE603924FC604624FE605224FE7A
:10292400605E24FE7003022A0224FE7003022A7AE7
:1029340024FE7003022A8924FE7003022A9824FCD0
:102944007003022AA724FE7003022AB6022AF39017
:1029540003007417F0A3E4122B17120465022AF380
:10296400851882851983AC82AD831207E9022AC3D4
:10297400851882851983AC82AD831207EF022AC3BE
:10298400850C08850D09740212174DAC82AD838540
:10299400088285098312337A12070B8A0C8B0DACDB
:1029A4000CAD0DEC4D6042E4F50CF50D780C1219EC
:1029B40084750C00750D03780C121984750C01755F
:1029C4000D03780C121984740812174D12199B798F
:1029D4001612337412082B7408121717E9F50C70C9
:1029E4000B12337012047D800F750C0185088285EB
:1029F4000983122B051235E8850C08022AC67402D5
:102A040012174DAC82AD83850C82850D8312337A07
:102A140012070B8A108B11AC10AD11EC4D6043857D
:102A24000C82850D83A3A312199B751000751103E5
:102A34007810121984751001751103781012198415
:102A4400740812174D12199B791612337412082B3D
:102A54007408121717E9F509700B12337012048306
:102A6400800F750901850C82850D83122B051235A3
:102A7400E8850908804C851882851983AC82AD836A
:102A84001207F5803A851882851983AC82AD8312CA
:102A940007FB802B851882851983AC82AD831208CD
:102AA40001801C851882851983AC82AD83120807C6
:102AB400800D851882851983AC82AD8312080DE9D7
:102AC400F508E50860298E828F83A3E06414601FF3
:102AD400850E82850F83E0900300122B0F123E2D8A
:102AE4009003011235E8E508A3122B1712045FEED8
:102AF400FAEFFB1207890234D4F50CEF3400F50D1C
:102B040022123E3185188285198322F08518828528
:102B1400198322F07C007D03850A82850B8312339E
:102B24007E2274EE12177174FC1217018A0A8B0B41
:102B34008C0E8D0FEA2405F508EB3400F5097C159D
:102B44007D0079007A007B03121137E5082402F531
:102B54000CE509122B00851882851983858210855E
:102B640083117810121984850882850983A3A3A38D
:102B7400A312302A121984E5082405F510E5093456
:102B840000F5117810121984850C82850D83123397
:102B94008412070574061217178A108B11AE10AF32
:102BA40011E50A2402F50AE50B1235CFEE4F700346
:102BB400022CEC8017740212174D12337A88828922
:102BC40083EAF0A3EBF0900300E004F0900300E04C
:102BD400C394054003022CECE4F510F511781012AF
:102BE40019847510E975110278101219847510EAA8
:102BF4007511027810121984740612174D12199B5C
:102C04007910EEFCEFFD12337412082B74081217BE
:102C140017E9705E850882850983A3A3A3A3A3A3F0
:102C2400A3E0F89002E9E068704812302A1219848F
:102C34007CEA7D02E5082408FAE5093400FB121158
:102C4400317402121717E960298E828F83A3A3A31C
:102C5400A312337A900300E0F51074027810121670
:102C6400EE74012510F58274033511F583EAF0A39F
:102C7400EBF0740212174D858210858311781012BF
:102C84001984740212174D12199B850C82850D83C9
:102C9400123E4212071174041217178A108B11AED8
:102CA40010AF11900300E0F5107511007402781054
:102CB4001216EE74002510F874033511F988828910
:102CC40083A31228187003022BB0E82403F8E93414
:102CD40000F9EE4F6003022BB98882898374FFF0F8
:102CE400A3F0900300E004F0900300E0600A1233C4
:102CF400701204717900800B85088285098312356E
:102D0400DF790A0234D474EA12177174FE121701BF
:102D14008C128D13EA2405F50CEB123FAC12278AB2
:102D2400750800750900EA2402F510EB3400F5116A
:102D340085188285198385820A85830B780A12197E
:102D440084850C82850D83A3A3A3A3122EEC1219F0
:102D540084E50C2405F50AE50D1235CF780A12191D
:102D640084850C82850D83123E4012070574061279
:102D740017178A0A8B0BEA450B7003022E9DEA246F
:102D840004F50EEB122EE212278A8A828B83A3A308
:102D9400A3E0F985108285118312337A1206F3E9D0
:102DA400F5096003022E9DE4F514F5157814121943
:102DB400847514E975150278141219847514EA756A
:102DC40015027814121984740612174D12199B797E
:102DD40013AC0AAD0B85108285118312337A120865
:102DE4002B7408121717E9F5096003022E9D90024F
:102DF400E9E0F8E5087009E02402900301F0801787
:102E0400900301E0FCE82402FAE43400FBEA6C706D
:102E140001EB6003022EA1850882AA82123021945C
:102E2400141230195073850E82850F83E0C0E0744C
:102E3400022A122ED9D0E0F00508850E82850F8370
:102E4400A3E0C0E085080A7402250A122ED9D0E056
:102E5400F005089002E9122EEC1219847CEA7D0236
:102E640085080A7402250AFA74033400FB12111F40
:102E740074021217179002E9E02508F50874FF6E32
:102E8400700374FF6F6012EE24010EEF3400FFE54F
:102E940008C394145003022D34E5086013123265FC
:102EA40085108285118312337A1204777900801495
:102EB400E509700375090A851282851383EEF0A370
:102EC400EFF0A90974021217177F0E021843850840
:102ED4000C7402250CF58274033400F5832234004B
:102EE400F50F850E82F58322123B6F2274EE1217C2
:102EF4007174FE1217018C0E8D0FEA2405F50CEB8C
:102F0400122B00750B00900300E4F0F50AEA24028A
:102F1400F508EB3400F5098049900300E0FA9002CB
:102F2400E9E0F81230219417123019400D90030093
:102F3400E0F87416C3989002E9F012302A1219844A
:102F44007CEA7D0274012AFA74033400FB12111F17
:102F540074021217179002E9E0F8900300E028F0D9
:102F6400050AE50C2416F582E50D122EDDE0F8E5E0
:102F74000AC3984003023002900300E0C394165041
:102F84007DE50AC333F8E433F9E50C28FEE50D3991
:102F9400FF851882851983AC82AD838E828F83125C
:102FA400337A12070B8A108B11AC10AD11EC4D70F3
:102FB40005750B018043E4F510F51178101219849E
:102FC4007510E975110278101219847510EA7511DB
:102FD400027810121984740612174D12199B79166F
:102FE40085088285098312337A12082B7408121714
:102FF40017E9F50B7003022F1D1235DB80107C00DE
:103004007D0385088285098312337A120489A90B0A
:1030140074020234D6E99400C365D03322EA28F856
:10302400E43400F9E822E0F51075110078102274F8
:10303400EA12177174FC1217018A0C8B0D8C128D15
:1030440013EA2405F50AEB1235CF7508007509005B
:10305400E50A2402F510E50B3400F5117402121789
:103064004D85820E85830F780E121984850A828518
:103074000B83A3A3A3A3123B1B121984E50A240503
:10308400F50EE50B3400F50F780E121984851082C5
:103094008511831235D5123374120705740612177D
:1030A400178A0E8B0FAE0EAF0FE50C2402F50EE55A
:1030B4000D3400F50F80408882898374FFF0050881
:1030C400122ED274FFF005089002E9E0F50C750D9C
:1030D40000780C1219847CEA7D0285080C740225A0
:1030E4000CFA74033400FB12111F740212171790A8
:1030F40002E9E02508F508EE4F60718E828F83A304
:10310400A3A3E0F9850E82850F8312337A1206F3A6
:10311400E9F509EE2404122AFDE97044E4F514F5F6
:103124001578141219847514E97515027814121996
:10313400847514EA75150278141219847408121728
:103144004D12199B7911EEFCEFFD850E82850F83DC
:1031540012337A12082B7408121717E9F50960273D
:10316400850C82850D8312325B1235E8E508700305
:10317400023241123265850E82850F8312337A1230
:10318400048F7900023256850882AA82EA9002E905
:103194007009E02404900301F08022E0F890030118
:1031A400E0F514E82404FCE43400FDEC651470013B
:1031B400ED70C0123021941212301950B6850C8271
:1031C400850D83E0C0E074022A122ED9D0E0F00508
:1031D40008850C82850D83A3E0C0E0122ED2D0E0D6
:1031E40012327785820C85830D780C12198474044D
:1031F40012174D12199B851082851183123E4212BB
:10320400071174041217178A0C8B0DAE0CAF0D85C1
:10321400080C7402250CF874033400F9EE4F7003A3
:103224000230BB851882851983E088828983123233
:1032340077A3E0C0E0122ED2D0E00230C9E50970D5
:103244000375090A850A82850B8312325B1235E8FD
:10325400A9097404022ECA123E3185128285138391
:1032640022900301E0F5F0E50884900300F07C006F
:103274007D0322F005088518828519832274EC12D7
:10328400177174FE1217018A088B098C0E8D0FEAD0
:103294002405FEEB3400FF851882851983AC82ADCA
:1032A400838E828F8312337A12070B8A0A8B0BEE7A
:1032B4002418122AFDEA450B700302334B1234BD65
:1032C400503285188285198312337A12081F8A10A6
:1032D4008B11EA4511606B7912AC0AAD0B8508823B
:1032E40085098312337A85108285118312176FE959
:1032F400F50A7058E4F50AF50B780A1219848E82DF
:103304008F83A3A3E0F50A780A121984EE2403122A
:1033140035CC780A1219848E828F83123384120872
:10332400317406121717E9F50A7021850C82850D90
:1033340083E0701F85088285098312337A1204950D
:103344008011750A0E8009750A018004E50A60037C
:103354001235DB850C82850D83E0600479008002E0
:10336400A90A74021217177F0C0218437C007D030C
:10337400850A82850B8312337E22E0FAA3E0FB22C6
:10338400E0FCA3E0FD85088285098312337E227464
:10339400EE12177174FE1217018A088B098C0C8DBA
:1033A4000DEA2405FEEB3400FF750E0085188285B6
:1033B4001983AC82AD838E828F8312337A12070B0A
:1033C4008A0A8B0BEA450B70030234A91234BD50F0
:1033D4003585188285198312337A12081F8A0E8B59
:1033E4000FEA450F605E7912AC0AAD0B8508828541
:1033F400098312337A850E82850F8312176FE9F5DC
:103404000E60030234AC8508828509831236C3AA90
:103414000AFB1208138A108B11A810A911E849702D
:103424001E7AFF7BFF1208138A108B11A810A911B2
:10343400E849606C88828983E50AF0A3E50BF0759E
:103444000A008007750E0E805F050A9002E6E0FA16
:10345400E50AC39A504AE50A75F017A4FAABF08856
:10346400828983A3A3E02AFAA3E03BFB8A828B83AD
:103474001235D5EC4D70D2750A17750B00780A1207
:103484001984EEFCEFFD12111F7402121717EEFCE3
:10349400EFFD85088285098312337A12049B801418
:1034A400750E098003750E01123E29850C82850D67
:1034B400831235E8A90E023014E5082402F508E564
:1034C400093400F5098A828B83A3A3A3E0A2E52231
:1034D40074041217177F0A02184374EC1217718CC4
:1034E400108D11EA2405F50CEB122B00750F00EA80
:1034F4002402F50AEB1235CF850A82F58312337A5A
:103504001208138A088B09EA450970030235C1754C
:103514000E008071850C82850D83E06401704F8EEE
:10352400828F83A3A312199B8E828F83A3A3A3A349
:10353400E0F5127513007812121984EE2405F512C1
:10354400EF3400F51378121219841233741208310F
:103554007406121717E9F50F6014850C82850D8324
:10356400E4F0123E298510828511831235E87C1718
:103574007D007900EEFAEFFB1211378E828F83E41F
:10358400F0A3F0050E9002E6E0F8E50EC398501E95
:10359400E50E75F017A4F8A9F0850882850983A3C0
:1035A400A3123FB61235D5EC4D60030235188508D9
:1035B4008285098374FFF0A3F0E50F70061233745B
:1035C4001204A1A90F02336BF50AEF3400F50B22A4
:1035D400A3E0FCA3E0FD228E828F83123E31850E90
:1035E40082850F83E8F0A3E9F022C082C0839002B1
:1035F400E2E06A7003A3E06B70067AE27B02800467
:103604007A007B000228DBC082C08378008C828D24
:1036140083E06A7003A3E06B7010E875F003A4F80C
:10362400A9F0EC28FAED39FB8015088C828D83A370
:10363400A3A3E06A7003A3E06B60DF7A007B00025F
:1036440028DB74F61217711207DD8A828B83E582F8
:10365400458370067A007B008007A3A3A3A31233DB
:103664007A023CDA74F2121771E9FE740E12174DE5
:103674001236C3741012174D123B3B8C828D83E0BB
:1036840064027036A3123E37F50CA3E0F9A80C745B
:10369400026870037429697021750C02750D007835
:1036A4000C1219847808121984780A121984EEF914
:1036B400120855740612171780027901023D5EE064
:1036C400F50AA3E0F50B2274E812177174FB1217C4
:1036D40001E9851882851983F08A168B17ECFEEDB3
:1036E400FF751000741D12174D123E2D741D121714
:1036F4004D1235E88E828F83A3A3A3E0A2E4502D5C
:10370400741D12174D12337A12081F8A828B83E5B7
:103714008245837003023B0C790AEEFCEFFDAA1686
:10372400AB1712176FE9F5106003023B0F741F12F9
:10373400174D123B3B742112174D1236C3742312DA
:10374400174DE0F50EA3E0F50F8E828F83E064023F
:103754006003023ABAA3123E2D850882850983A329
:10376400858212858313EE2406122AFD88828983BA
:10377400E0FAA3E0F9EA2400F514E439F515781425
:10378400121A0E010000280128AF3707000228741E
:10379400380328E1370029AB390129D639022977C2
:1037A400390329AB390429553ABA3AE50E450F6075
:1037B40003023AB5850C82850D83123B30FAE9FB8E
:1037C4008A828B83E0850A82850B83123B661219F9
:1037D400848A828B83A3E0FCA3E0023A3FE50E4592
:1037E4000F6003023AB5850A82850B837401F012D7
:1037F4003B43850882850983F07C007D008E828F9F
:1038040083A3A3A3A3E02401FAA3E03400FB1207DB
:103814000BEA4B60418A828B83E02402F8850A829A
:10382400850B83E028F0EA2404F8EB3400F988825D
:103834008983E0851282851383123B78123B6612DA
:1038440019848A828B831235D4E5082403FAE509A6
:103854003400FB023A44850A82850B83E02404F099
:103864007C047D007900AA12AB13121137023B0FBE
:10387400E50E450F6003023AB5123B43FEA3E0FF99
:10388400850A82850B837404F0EE8508828509839A
:10389400F0EF851282851383F0740312174DAC8206
:1038A400AD83EEFAEFFB12070B8A0C8B0DEA450D84
:1038B40070030239588A828B83A3A312278674016A
:1038C40012174D85820E85830F780E1219847405A4
:1038D40012174D12199B7CFF7DFF120711740412FD
:1038E40017178B0FEA450F7033850C82850D8312F1
:1038F4003B1B121984850C82850D83A312199B7CB2
:10390400027D007A967B8112053D7404121717E933
:10391400700A740112174D74FFF0A3F08E828F8326
:10392400E064027039750C02750D00780C1219846C
:103934008E828F831235D4E5082404FAE509340015
:10394400FB12111F7402121717850A82850B83E07C
:1039540024028009740112174DEEF0A3EFF07401F4
:1039640012174D123B2CF0740112174DA3123B2475
:10397400023AAFE50E450F6003023AB5850C828525
:103984000D831235D5AA16AB17120849850A82850C
:103994000B837402F0EA850882850983F08512821C
:1039A400851383EB023AB2E50E450F6003023AB584
:1039B400123B43F8A3E0F9850A82850B837402F075
:1039C400E8850882850983F0E985128285138302DC
:1039D4003AB2850C82850D8312337A121119EAFCEE
:1039E4008C82A882C3950EE4950F405FE8650E7043
:1039F40002E50F70047C008022851882851983E01B
:103A0400FAE50E2AFAE50F3400FBC3EA98EB9400BA
:103A14005003E08005E50ECCC39CFCEC850A82854E
:103A24000B83F08C0A750B00780A121984850C82BA
:103A3400850D83E0250EFCA3E0350FFDAA08AB0934
:103A440012111F7402121717023B0F751007023B65
:103A54000FE50E450F705A850C82850D83123E2D9D
:103A6400850A82850B837407122792123B2412273E
:103A740092A3E0851282851383F0E82402FAE934E4
:103A840000FB8A828B83123B24123B53123B2CA3F0
:103A9400123B5C123B35F0E82405F8E93400F98860
:103AA400828983123B35A3123B78A3A3A3A3F0809E
:103AB4005A75100B8055741D12174D12337A120764
:103AC400DD8A828B83E5824583603D123E2D880C1E
:103AD400890DE8450D6031780E121984780A12199F
:103AE400847808121984740612174DE0F9EEFCEF7D
:103AF400FDAA16AB17850C82850D8312176F740609
:103B0400121717E9F510800375100EA91074051229
:103B140017177F10021843E0F50E750F00780E2278
:103B2400E085088285098322123B8222123E31E815
:103B340022123B82A3A322E0F508A3E0F509228523
:103B44000C82850D83E0F8A3E0F5838882E022A34C
:103B5400A3F08A828B83A322F088828983A3A3A300
:103B6400A322F08A828B83123B6F22E0F50A750B45
:103B740000780A22F088828983A3123B8222E0859E
:103B84000882850983A3A32274EE12177174FE12AE
:103B940017018A0A8B0BECFAEDFB741412174DE033
:103BA400F510A3E0F511741612174DE0FE74181207
:103BB400174DE0F50EA3E0F50F851882851983AC47
:103BC40082AD8312070B8A0C8B0DEA450D60498583
:103BD400188285198312337A1207DD8A828B83E572
:103BE400824583602FA3A3123B3BE508450960246B
:103BF400780E1219847810121984EEF9AC0CAD0DFC
:103C0400AA0AAB0B85088285098312176F74041204
:103C140017178006790E8002790102301474F612A7
:103C2400177174FE121701740C12174D123B308574
:103C34001882851983F0740112174DE9F0E4F50830
:103C4400F509780812198475080278081219847421
:103C54000412174D85820885830978081219841285
:103C6400083174061217177402121717806874F754
:103C7400121771EAFEEBFF89087C197D03120849CB
:103C8400EA5402600BA908EEFAEFFB1206FF800269
:103C9400790102268E74F612177174FF6A70037428
:103CA400FF6B70168C828D83123CDFE4F08C828D66
:103CB40083A3A3A3123CDFA380181208198A088BDC
:103CC40009A808A909E849600D8882898374FF124C
:103CD4002790A3A3E4F07F0202184374FFF0A3F03B
:103CE4008C828D83A3A32274F61217711208198A89
:103CF400828B83E58245836006A3A3E0FA80027A7F
:103D0400007B0080D174F21217718A088B09ECFED3
:103D1400EDFF740E12174DE0F50A1208198A0C8B88
:103D24000DA80CA90DE8497026EEFCEFFD7AFF7B87
:103D3400FF1208198A0C8B0DA80CA90DE849700410
:103D44007911801688828983E508F0A3E509F08853
:103D5400828983A3A3E50AF079007F0602184374DD
:103D6400EE121771EAFEEBFF8C088D09890C7414AE
:103D740012174D123E2D741612174D12337A750D0B
:103D840000E8496003023E217402650C6003023EB0
:103D94001C741212174D123E37FCA3E0F9EC2400F8
:103DA400F50EE439F50FEAF4F8EBF4F9EC58F8E51C
:103DB4000F59F9E849705CE5082406F8ED3400F978
:103DC400880A890B8882F583123E421208498A10B8
:103DD4008B11E50E65107004E50F65116042780ED5
:103DE400121984850A82850B83123E4212084F748D
:103DF40002121717E9F50D7027780E121984850839
:103E040082850983A3A3123E401208677402121725
:103E140017800D750D808008750D0D8003750D0BD1
:103E2400A90D0234D98E828F83123E3122E0F8A389
:103E3400E0F922123E3188828983E022A3A3E0FCC8
:103E4400A3E0FDEEFAEFFB2274E812177174E71297
:103E54001701851882851983EAF0A3EBF08C168D7F
:103E640017890E750800750900743112174DE0F5B5
:103E740012A3E0F513743312174DE0F514A3E0F523
:103E840015743512174DE0F50FE50975F003A4F824
:103E9400A9F0851882851983123FB6E0F47003A354
:103EA400E0F47003023F99EE2402F50CEF123FACEC
:103EB400E07003023F9985160A85170B780A1219D8
:103EC40084AC14AD15AA12AB131207D174021217E5
:103ED400178A0A8B0BEA450B7003023F99E4F5102D
:103EE400F5117810121984740612174D8582108505
:103EF40083117810121984740912174D8582108564
:103F040083117810121984851282851383A3A3A3C5
:103F1400A312199B7914AC0AAD0B8E828F831233D2
:103F24007A12082B7408121717E97069850A8285BA
:103F34000B83A3A3A3A3123E2D740212174D1235B3
:103F4400E8850C82850D83E0A2E05018A90E740266
:103F540012174DAC82AD838E828F8312337A12078F
:103F640023E94208850C82850D83E0A2E15026E511
:103F74000FF50A780A121988A90E740312174DACAA
:103F840082AD838E828F8312337A12071D740112DD
:103F94001717E942080509E509C394025003023ED4
:103FA4008DA9087419023B133400F50D850C82F5B4
:103FB4008322E028FEA3E039FF8E828F832274F2ED
:103FC400121771EAFEEBFF890B7401650B600E7426
:103FD40002650B706A7901120A29E97062EEFAEF40
:103FE400FB1208138A088B09EA45096047750A0021
:103FF400800B7C177D007900121137050A9002E6C8
:10400400E0F8E50AC3985021E50A75F017A4F8A969
:10401400F0850882850983A3A3E028FAA3E039FB8D
:104024008A828B831228E270C98508828509837489
:10403400FFF0A3F07C197D03EEFAEFFB12084302B4
:104044003D5E74F21217718A088B09ECFEEDFF7461
:104054000E12174D1236C3900A02E0F4603D7A093D
:104064007B00121143EA4B60328A828B8374B1F075
:10407400A3E4123B55A3123B53A3E508F0A3E509BF
:104084001240A2EEF0A3EF1240A2A3A3E50AF0A30C
:10409400E50BF0900A02E0F912114F023D5EF08A3E
:1040A400828B83A3A3A3A3A322C082C08390619025
:1040B4007404F0A37448F0A37402F0906180744017
:1040C400F09061BC7403F09061877419F09062659C
:1040D400741BF0906249E0C3941390619C400A748D
:1040E40009F090606674018007740DF0906066E4D6
:1040F400F090619A7433F0A37455F09061A0743A0F
:10410400F090053FE064017009C2919003A67467C2
:1041140080059003A67461F090264AE4939061862A
:10412400F0902644E493F46027E493540FF89061EC
:1041340085E0686012E5C654804449F5C6E59E549E
:104144007F644970F8E8F053C680E59E547F70FAA6
:104154007905120D710242DBC082C083E5A8F853D1
:10416400A87E906181E4F0A3F0A3F0C2BA539AFE52
:10417400C289759B00C2C275E90075910075BF00C4
:1041840075A91175B905906181F0A374C0F0A3E419
:10419400F0D2BA439A0174805842A80242DBC0822A
:1041A400C08374F81217019003A4E0F8A3E0F9E8BF
:1041B4004970030242D09003A4E05440602379087C
:1041C400851882851983AA82AB83120BE585188230
:1041D400851983AA82AB831208D99003A4E054BF43
:1041E400F0E054806010790C7A657B05120BE59041
:1041F40003A4E0547FF0E0A2E0503190619A74335C
:10420400F0A37455F09061A0743AF090053FE06417
:10421400017009C2919003A6746780059003A67487
:1042240061F01208DF9003A4E054FEF0E054026051
:104234003190619A743FF0A3745AF09061A0747F36
:10424400F090053FE064017009D2919003A6747167
:1042540080059003A6746AF01208DF9003A4E0546A
:10426400FDF0E054046013902648E493906186F0D6
:104274001208E59003A4E054FBF0E05408601390A6
:104284002649E493906186F01208E59003A4E05473
:10429400F7F0E05410601390264AE493906186F09E
:1042A4001208E59003A4E054EFF0E05420600A12F1
:1042B40008E59003A4E054DFF0A3E05401600D127C
:1042C4000B0D1208EB9003A5E054FEF074081217CE
:1042D400170242DBF0A3F0D083D08202011F74ECFA
:1042E40012177174F4121701851882851983AC8230
:1042F400AD837583817582837404121614902648E5
:1043040093F4600302446E907808E0C3940250036F
:1043140002444E740412174DAC82AD8375838175CB
:10432400822A7408121614851882851983858212CC
:10433400858313740412174DAC82AD83750EFF751B
:104344000FFF7FFF7E00750C48750D78801574088B
:104354006E70030243E274096E70030243E2740A4E
:104364006E607B850C82850D8378081215B98C826A
:104374008D83A909E50AC9F88810741878081214FD
:10438400E7E5104508F8C3E098A3E099850C828519
:104394000D8378081215B940188C828D83741878AF
:1043A400081214E7E5104508F8E0C398F8A3E08084
:1043B4001C741878081214E7E5104508FAE9FB8C18
:1043C400828D83E0F8A3E0F9EAC398F8EB99F9C386
:1043D400E8950EE9950F5006880E890FEEFF0EE55D
:1043E4000C2404F50CE50D3400F50DEEC3941350C4
:1043F4000302435274FF650E700474FF650F60235B
:104404008F08740278081216EE74482508F5827431
:10441400783509F58378081215B9851282851383D6
:10442400E508F0EC2402FCED3400FD8512828513CE
:1044340083A3858212858313740C12174DE5826C55
:104444007003E5836D60030243407508017509003C
:104454007808121984740212174DAC82AD837A92D3
:104464007B091210B97402121717740C1217177FF4
:104474000C021843C082C0839061AE7468F0A374C8
:104484006AF090624574FBF0A304F053F4FD43FE1C
:104494000290053F7401F09061A0E0643A90619A43
:1044A40070237433F0A37455F09061A0743AF074DF
:1044B4000164017009C2919003A674678028900377
:1044C400A674618021743FF0A3745AF09061A074C3
:1044D4007FF0740164017009D2919003A674718015
:1044E400059003A6746A0242DA7F08021843C08268
:1044F400C0839004F1E06401700A9004F6E0600463
:10450400790C800279000242DBC082C08375E1F13C
:104514009004F4E0605B14600914605F1460571445
:10452400705E120B1F9004EAE0F97AEB7B04120C24
:10453400F37AD67BBE7C897D8E120D297A557B5504
:104544007C557D00120CFF9004F5E0F9120D0B79F7
:1045540001120D659004E8E0F8A3E0C82416F58282
:10456400E83400F5837437F0A3740BF07900024249
:10457400DB120B2580AF120B2B80AA120B3180A506
:10458400791280EA74F012177175D90D9004D5E090
:10459400A2E0E4331313F89004EAE0C4333354C0C4
:1045A400484401F5D978E8790488828983A3A3A3D0
:1045B400E0F5D988828983A3A882A983E864EE7090
:1045C40003E9640470E378D5790488828983A3E0DD
:1045D400F5D988828983A3A882A983E864DB700360
:1045E400E9640470E575E1959004D5E0F97AD67B29
:1045F40004120CF9900A2474D1F0A3740AF0A37481
:104604002DF0A3740CF0A3742DF0A3740CF0A37418
:104614002DF0A3740CF0A374D7F0A3740AF0A37460
:104624002DF0A3740CF0A374EFF0A3740AF0900AB5
:1046340032742DF0A3740CF0A3742DF0A3740CF059
:10464400A3742DF0A3740CF0A3742DF0A3740CF0D8
:10465400A3742DF0A3740CF0A3742DF0A3740CF0C8
:104664009004F4E064019004E87012E0F8A3E0F52B
:10467400838882A3A37508007509088010E0F8A355
:10468400E0F5838882A3A3750804750900750A0000
:10469400750B007808121532750CFF750DFF750E39
:1046A400FF750F007808790C1215809004E8E0F883
:1046B400A3E0C8240EF582E83400F58378081215C7
:1046C400C89004E8E0F8A3E0C82414F582E83400B4
:1046D400F5837413F09003A27402F00244ED74F7AE
:1046E4001217719004FAE02407F5D99004EAE0C4A3
:1046F400333354C0F5D978E8790488828983A3A335
:10470400A3E0F5D988828983A3A882A983E864EE0B
:104714007003E9640470E39004FAE0601F78E879B8
:1047240004FAE82413F582E93400F583E0F5D98826
:10473400828983A3A882A9831AEA70E690051AE005
:104744002407F5D99004EAE0C4333354C04404F593
:10475400D978E8790488828983A3A3A3E0F5D9886A
:10476400828983A3A882A983E864EE7003E96404C0
:1047740070E390051AE0601F78E87904FAE82433BE
:10478400F582E93400F583E0F5D988828983A3A80A
:1047940082A9831AEA70E675E195900A2474DDF023
:1047A400A3740AF0A3742DF0A3740CF0A3742DF079
:1047B400A3740CF0A3742DF0A3740CF0A374D7F0BD
:1047C400A3740AF0A3742DF0A3740CF0A374EFF097
:1047D400A3740AF0900A32742DF0A3740CF0A3743D
:1047E4002DF0A3740CF0A3742DF0A3740CF0A37437
:1047F4002DF0A3740CF0A3742DF0A3740CF0A37427
:104804002DF0A3740CF09004E8E0F8A3E0C8240EA3
:10481400F582E83400F58374FFF0A3F0A3F0A3F06D
:104824009004E8E0F8A3E0C82414F582E83400F525
:10483400837412F09003A27401F0FF02184374F71A
:104844001217719004FAE02407F5D99004EAE0C441
:10485400333354C04402F5D978E8790488828983D3
:10486400A3A3A3E0F5D988828983A3A882A983E8B6
:1048740064EE7003E9640470E39004FAE0601F7866
:10488400E87904FAE82413F582E93400F583E0F5C5
:10489400D988828983A3A882A9831AEA70E675E17C
:1048A40095900A2474E9F0A3740AF0A374E9F0A3C0
:1048B400740AF0A374E9F0A3740AF0A374E9F0A3F2
:1048C400740AF0A374E9F0A3740AF0A374E9F0A3E2
:1048D400740AF0A374EFF0A3740AF0900A32742DF2
:1048E400F0A3740CF0A3742DF0A3740CF0A3742D36
:1048F400F0A3740CF0A3742DF0A3740CF0A3742D26
:10490400F0A3740CF0A3742DF0A3740CF09004E8DD
:10491400E0F8A3E0C8240EF582E83400F58374FFC0
:10492400F0A3F0A3F0A3F09004E8E0F8A3E0C82417
:1049340014F582E83400F5837414F09003A274042F
:10494400F0024C0974F71217719004FAE02407F589
:10495400D99004EAE0C4333354C04406F5D978E866
:10496400790488828983A3A3A3E0F5D98882898303
:10497400A3A882A983E864EE7003E9640470E39059
:1049840004FAE0601F78E87904FAE82413F582E970
:104994003400F583E0F5D988828983A3A882A983AA
:1049A4001AEA70E690051AE02407F5D99004EAE0C3
:1049B400C4333354C04404F5D978E879048882892F
:1049C40083A3A3A3E0F5D988828983A3A882A983BA
:1049D400E864EE7003E9640470E390051AE0601F74
:1049E40078E87904FAE82433F582E93400F583E0C1
:1049F400F5D988828983A3A882A9831AEA70E67507
:104A0400E195900A2474E3F0A3740AF0A3742DF0E2
:104A1400A3740CF0A3742DF0A3740CF0A3742DF004
:104A2400A3740CF0A3742DF0A3740CF0A3742DF0F4
:104A3400A3740CF0A374EFF0A3740AF0900A327418
:104A44002DF0A3740CF0A3742DF0A3740CF0A374D4
:104A54002DF0A3740CF0A3742DF0A3740CF0A374C4
:104A64002DF0A3740CF0A3742DF0A3740CF0900437
:104A7400E8E0F8A3E0C8240EF582E83400F5837476
:104A8400FFF0A3F0A3F0A3F09004E8E0F8A3E0C8DB
:104A94002414F582E83400F5837415F09003A274AD
:104AA40003F0024C09C082C0839004E8E0F8A3E05C
:104AB400C82406F582E83400F583E40242D874F78A
:104AC4001217719003D0E0F875F003A4C8AAF02A75
:104AD400F974D228F8740339F9E82405FAE93400A2
:104AE400FB8A828B83E0FCA3E0FD88828983A3A3F5
:104AF400A3A3A3A3A3A3A3ECF0A3EDF088828983CB
:104B0400A3A3A3A3A3A3A3E024FFF8A3E034FFF982
:104B14008A828B83E8F0A3E9F0024C0974F7121738
:104B240071EAFEEBFF9061D0E06003024BFD75D9A2
:104B34000E75D90375D904EE248BF582EF3400F594
:104B440083E5822408F8E5833400F9E0F5D9A3E885
:104B540065827003E9658370F2EE2483F582EF3495
:104B640000F583E5822404F8E5833400F9E0F5D9FF
:104B7400A3E865827003E9658370F275E1957908AD
:104B8400EE248BFAEF3400FB120BD97904EE248364
:104B9400FAEF3400FB120BD97C00EEF8EFF9ECFAD3
:104BA400C3E49AFA95E0FBEE2AFAEF3BFBEA248A87
:104BB400F582EB3400F583E0C0E0E824AAF582E94D
:104BC4003400F583D0E0F00C88828983A3A882A9FD
:104BD40083ECC3940840C7EE246FF582EF3400F5EC
:104BE40083E0F8A3E0F9EE2471F582EF3400F58355
:104BF400E8F0A3E9F07901800279008008F0EEA2E0
:104C0400E092AF79007F01021843C082C08375D956
:104C14000275D90375D90575E195EA246FF582EB20
:104C24003400F583E0F8A3E0F9EA2471F582EB346B
:104C340000F583E8F0A3E9F079010242DB74F6128F
:104C44001771EAFEEBFF9005457406F0750845758B
:104C5400090578081219847C017903120C21740265
:104C640012171775D90675D903758245758305E042
:104C7400F5D9A3E582644A7004E583640570F07590
:104C8400E1959003A2E06408701EEE246FF582EFB4
:104C94003400F583E0F8A3E0F9EE2471F582EF34F3
:104CA40000F583E8F0A3E9F07901024F0F74F612DE
:104CB4001771EAFEEBFF9061D0E070667801900511
:104CC40045740BF09003A2E06407701975084575EC
:104CD400090578081219847C017903120C217402E5
:104CE4001217177805740128F5D975D9037582450B
:104CF400758305E8FAE0F5D9A31AEA70F875E19529
:104D0400EE246FF582EF3400F583E0F8A3E0F9EECA
:104D14002471F582EF3400F583E8F0A3E9F079011A
:104D240080027900024F0F74F7121771EAFEEBFF4D
:104D340075D90375D90375D90DEE24DDF582EF34E9
:104D440000F583E0F5D975E1957904120D2FEE2471
:104D54006FF582EF3400F583E0F8A3E0F9EE2471F7
:104D6400F582EF3400F583E8F0A3E9F07901024C11
:104D74000974F6121771EAFEEBFF9061D0E0F87443
:104D840080C398FAEE2482F582EF3400F583E06064
:104D940004780480027800E8240BF8EAC3985003EE
:104DA400024E3A7D09900545EDF0EE24E2F8EF3429
:104DB40000F97A467B057C0888828983E08A828BA5
:104DC40083F088828983A3A882A9838A828B83A3A0
:104DD400AA82AB831CEC70E0EE2482F582EF3400EF
:104DE400F583E0601D750845750905780812198476
:104DF4007C097903EEFAEFFB120C217402121717E7
:104E04007D0D74012DF5D975D9037582457583051A
:104E14008D08E0F5D9A31508E50870F675E19579D4
:104E240004120D2FEE241DF582EF3400F583E4F017
:104E3400A3F0790180027900024F0F74F612177102
:104E4400EAFEEBFF9061D0E0F87480C398FAEE2498
:104E540082F582EF3400F583E06004780480027800
:104E640000E82408F8EAC3985003024F0D7806902E
:104E74000545740CF09003BFE0900546F09003C024
:104E8400E0900547F09003C1E0900548F09003C21C
:104E9400E0900549F09003C3E090054AF0EE2482C7
:104EA400F582EF3400F583E0601B7508457509054C
:104EB40078081219847C067903EEFA120C21740224
:104EC400121717780A740128F5D975D90375824524
:104ED4007583058808E0F5D9A31508E50870F6750B
:104EE400E1957904120D2FEE246FF582EF3400F56D
:104EF40083E0F8A3E0F9EE2471F582EF3400F58342
:104F0400E8F0A3E9F07901800279007F02021843F6
:104F140074F6121771EAFEEBFF9061D0E0F874802A
:104F2400C398FAEE2482F582EF3400F583E060043E
:104F3400780480027800E82404F8EAC39850030255
:104F44004FEE7802900545E8F0EE24F4F582EF3454
:104F540000F583E0900546F0EE2482F582EF3400FC
:104F6400F583E0601B7508457509057808121984F6
:104F74007C027903EEFA120C2174021217177806D8
:104F8400740128F5D975D903758245758305880898
:104F9400E0F5D9A31508E50870F675E195EE2473DC
:104FA400F582EF3400F583E4F0EE247FF582EF34EC
:104FB40000F583E4F0EE241DF582EF3400F583E47C
:104FC400F0A3F07904120D2FEE240DF582EF3400D6
:104FD400F583E0F8A3E0F9EE2471F582EF3400F5EF
:104FE40083E8F0A3E9F0790180027900024F0F749D
:104FF400F61217719061D0E0F87480C398FCEA242B
:1050040082F582EB3400F583E06004780480027852
:1050140000E82404F8ECC398405B790290054574D9
:1050240007F0EA24F5F582EB3400F583E0900546B9
:10503400F0EA2482F582EB3400F583E06018750809
:105044004575090578081219847C0209120C21742B
:10505400021217177906740129F5D975D9037582D7
:1050640045758305E9F8E0F5D9A318E870F875E10A
:1050740095790180027900024F0F74F5121771E9D6
:10508400FCA2AFE433F50AC2AF7D0080010DEA242F
:105094006EF582EB3400F583E0F8EDC398501A8D79
:1050A40008EA2508F8EB3400F9E8246AF582E934C3
:1050B40000F583E06C70D68024EA246EF8EB3400AB
:1050C400F9E0FEEA2EFAEB3400FBEA246AF582EBFF
:1050D4003400F583ECF088828983E004F0E50AA2C9
:1050E400E092AF7F0302184374F6121771A2AFE483
:1050F40033FDC2AFEA246EF582EB3400F583E0148D
:10510400F07C0060368C08EA2508F8EB3400F9E8F6
:10511400246BF582E93400F583E0C0E0E8246AF505
:1051240082E93400F583D0E0F00CEA246EF582EBDA
:105134003400F583E0F8ECC39840CAEA246DF582A4
:10514400EB3400F58374FFF0EA2469F582EB340054
:10515400F583E4F0EDA2E092AF024F0FC082C0836A
:10516400E5A8F8C2AFEA246AF582EB3400F583E9D6
:10517400F0EA2469F582EB3400F583E4F0E8A2E771
:10518400A2E792AF0242DB74F3121771EAFEEBFF5F
:10519400ECFAEDFB8A828B83A3A3A3A3E0541FF054
:1051A400EE2436F582EF3400F583E4F0F50AEEFCE4
:1051B400EFFD8A828B83E0C0E0EC245DF582ED3460
:1051C40000F583D0E0F0750B00E50A33333354F86F
:1051D400F50C8A828B83E0F508750900E50B7808E5
:1051E4001216CFE508A2E0502FEE2436F8EF340073
:1051F400F988828983E0F508EE2508F508EF340084
:10520400F509E5082438F582E5093400F583E50C51
:10521400F088828983E004F0050B050CE50BC39448
:105224000840AF050A8A828B83A3AA82AB838C824F
:105234008D83A3AC82AD83E50AC394055003025168
:10524400B67F0502184374F71217719003CEE06419
:105254000170030253A87A009003D4E06003025360
:10526400A87401F0A3E4F0A3F090043404F09004D3
:1052740039F09003D7E4F0A3F0A3F0A3F09003E196
:1052840004F0900407E4F09003EAF0A3F0A3F0A381
:10529400F0A3F0A3F0A3F0900451F0900445F09033
:1052A400043A7480F0A3E4F0900440F09004BCF05D
:1052B400A3F0A3F0A3F0A3F0A3F0A3F0A3F0900451
:1052C400C5F0900454F09004A4F0A3F0A3F0A3F06C
:1052D400A3F0A3F0A3F0A3F0A3F0A3F09004B0F024
:1052E4009004B2F09004AEF09004C8F0A3F0A3F0E0
:1052F400A3F0A3F0A3F0A3F0A3F078CE7903E824FD
:105304006EF582E93400F58374FFF00A888289839C
:10531400A3A882A983EAC3940440E37ACE7B0378EA
:10532400DC790488828983E0C0E0EA2461F582EBB9
:105334003400F583D0E0F088828983A3A882A9830E
:105344008A828B83A3AA82AB83E864E17003E96455
:105354000470D07ACE7B0378B5790388828983A3DD
:10536400E0C0E0EA24E6F582EB3400F583D0E0F017
:1053740088828983A3A882A9838A828B83A3AA8231
:10538400AB83E864BD7003E9640370CF9003CEE09F
:1053940004F0640170089003D6E09003D0F07AD250
:1053A4007B0380047A007B00024C09C082C0839096
:1053B40003D5E4F09003D4F09003CEF0A3F0A374EB
:1053C400FFF075E1F10242DBC082C083780079000E
:1053D4009003D5E0600478D2790388828983A3A3FB
:1053E400A3A3E0F90242DB74F6121771EAFEEBFFA5
:1053F400EE2463F582EF3400F583E0F8A3E0F9E8E6
:10540400497003025490EE2463F8EF3400F97A00F3
:105414007B00A2AFE433F508C2AF88828983E0FC45
:10542400A3E0FDEC4D603A88828983E0FAA3E0FBB7
:105434008A828B83E0FCA3E0FD88828983ECF0A35D
:10544400EDF08A828B83E4F0A3F088828983E0FC08
:10545400A3E0FDEC4D700A88828983A3A3E4F0A342
:10546400F0E508A2E092AF1211A39004E2E004F088
:105474009004E3E004F0EE2463F582EF3400F58356
:10548400E0F8A3E0F9E849600302540A8E828F83AE
:10549400A3A3A3E0600F8E828F83A3A3A3E4F09061
:1054A40003CFE014F09003CEE014F070069003D024
:1054B40074FFF08E828F83A3A3E4F09004E1E07084
:1054C4000D9003CFE0640170057900120D11EEFA1E
:1054D400EFFB120C51024F0F74F7121771EAFEEB37
:1054E400FF8E828F83A3A3A3A3E0FA7B0012092D6E
:1054F400EEFAEFFB120BA3120C39024C09C082C066
:105504008378B5790388828983A3E4F088828983C8
:10551400A3A882A983E864BD7003E9640370E690DC
:1055240003B674010242DA74F6121771EAFEEBFF55
:10553400EC2403F8ED3400F988088909EC2407F811
:10554400ED3400F9E8FCE9FD8C828D83E0F8A3E0FA
:10555400F9850882850983E0FAA3E0FB121676EE4A
:10556400240DF582EF3400F583E8F0A3E9F08C8292
:105574008D83E0F8A3E0F9850882850983E0FAA326
:10558400E0FB1216768B09EA45096013EE240DF54B
:1055940082EF3400F583E02401F0A3E03400F0024C
:1055A4004F0F74F6121771EAFEEBFFEE242EF5820C
:1055B400EF3400F583E0FCA3E0FD780079FAECFA1F
:1055C400EDFB121676EE246FF582EF3400F583E8D6
:1055D400F0A3E9F0780079FAECFAEDFB1216768B79
:1055E40009EA45096013EE246FF582EF3400F58370
:1055F400E02401F0A3E03400F0024F0F74EC121722
:1056040071EAFEEBFF741412174D78081215B912E3
:105614000CD58A0C8B0D8C0E8D0F75100275110034
:10562400751200751300780C791012151F7510FF90
:105634007511FF7512FF780C7910121580780C1211
:1056440019808E828F83E0F8A3E0F5838882A3A378
:105654001215D712238D7404121717E96003025729
:10566400648E828F83E02402F8A3E03400F9E8FA20
:10567400E9FB8A828B8378081215458A828B8375AD
:1056840008FF7509FF750AFF750B0078081215A647
:10569400EE240BF582EF3400F583C082C0838E8242
:1056A4008F83A3A3A3A3A3E02401F8A3E03400F908
:1056B400D083D082E0687003A3E0697005790102A9
:1056C40057668E828F83A3A3A3A3A3A3A3E024017D
:1056D400F0A3E03400F0EE2473F582EF3400F58398
:1056E400E064017036EE2474F582EF3400F583E053
:1056F400F8A3E0F98E828F83A3A3A3A3A3A3A3E0BB
:10570400687003A3E0697013EE2474F582EF34002B
:10571400F583E02401F0A3E03400F0EE247FF58269
:10572400EF3400F583E064017036EE2480F582EFF7
:105734003400F583E0F8A3E0F98E828F83A3A3A35A
:10574400A3A3A3A3E0687003A3E0697013EE24800D
:10575400F582EF3400F583E02401F0A3E03400F097
:10576400790002447374F6121771E9FEECFFEA241F
:1057740062F582EB3400F583E064016003025812A1
:105784009061D0E0F508EA2482F582EB3400F583D9
:10579400E060047804800278007480C39508FC9566
:1057A400E0FDEF28F8E43400F9E82402F8E93400D5
:1057B400F9EC98ED99A2D265D033404E740A1217D1
:1057C4004DE0F508A3E0F509EA2482F582EB340004
:1057D400F583E060157808121984EFFCEEF9120CD9
:1057E40021740212171774042FFF74012FF5D98E38
:1057F400D9EF600F850882850983F8E0F5D9A318ED
:10580400E870F875E195790080067907800279FFE0
:10581400024F0F74F7121771A2AFE433FEC2AF8ABE
:10582400828B83E0F8A3E0F9E8498A828B83600ADB
:10583400A3A3E0F8A3E0F5838882ECF0A3EDF08A5B
:10584400828B83A3A3ECF0A3EDF08C828D83E4F030
:10585400A3024C0174F7121771E96021F88C828D50
:1058640083E08A828B83F08C828D83A3AC82AD83A8
:105874008A828B83A3AA82AB8318E870E0ECFAEDEA
:10588400FB024C0974F4121771907803E0644270BF
:1058940055900544E014F0704DC2AF1258A2007840
:1058A4002AD0E0F618D0E0F6E59F54077005750994
:1058B400FF800375097FC4C0E07829E6F50808E68F
:1058C4005509F509740B78081216DFD0E02508F89D
:1058D400906270E0A2E740F8E8C333906272F090FF
:1058E4006270E0D2E0F09003D0E0F47003025C82D6
:1058F400E0F875F003A4C8AAF02AF974D228FE745B
:105904000339FFEE2401F582EF3401F583E0F8A3B7
:10591400E0F9E849601EEE2401F582EF3401F583D5
:10592400E0FAA3E0FBEE2400F582EF3401F583E016
:10593400F91211738E828F83A3A3A3A3A3A3A3E05D
:10594400F8A3E0F98E828F83A3A3A3A3A3E8F0A313
:10595400E9F0906054E09003A9F0906055E0900362
:10596400AAF0906056E09003ABF0906057E090038B
:10597400ACF0906058E09003ADF0906059E0900373
:10598400AEF090605AE09003AFF090605BE090035B
:10599400B0F090605CE0FC9003B1F090605DE0FBDF
:1059A4009003B2F090605EE0FD9003B3F090605F0E
:1059B400E0FA9003B4F09003AFE08C082508F8E413
:1059C4003400F98D08E82508F8E93400F98B08E873
:1059D4002508F8E93400F98A08E82508FAE93400CA
:1059E400FBEE24F6F582EF3400F583E02AF0A3E021
:1059F4003BF08C08EE24F8F582EF3400F583E025C3
:105A040008F0A3E03400F0EE24FAF582EF3400F558
:105A140083E02401F0A3E03400F0EE24FEF582EFED
:105A24003400F583E0F8A3E0F9E8496042906000AF
:105A3400E0C333FCE433FDE82CF582E93DF583E073
:105A44002AF0A3E03BF0906000E0FA9003B1E0FCA0
:105A5400EAC333FAE433FBE82AF8E93BF9E8244AD9
:105A6400F582E93400F583E02CF0A3E03400F090F3
:105A740003AFE070119003B2E0700BA3E07007A3D2
:105A8400E07003025B7F8E828F83A3A3A3A3A3E0B2
:105A9400F8A3E0F9EE240DF582EF3400F583E02855
:105AA400F8A3E039F9EE240BF582EF3400F583E82E
:105AB400F0A3E9F0EE240FF582EF3400F583E4F06F
:105AC400EE241CF582EF3400F583E06401701EEED1
:105AD4002420F582EF3400F583E0F8A3E0F9EE2406
:105AE4001DF582EF3400F583E8F0A3E9F09003AAF2
:105AF400E06052EE241CF582EF3400F5837401F06B
:105B0400EE2469F582EF3400F583E07038EE2473F7
:105B1400F582EF3400F583E0702BEE247FF582EFFD
:105B24003400F583E0701EEE2420F582EF3400F596
:105B340083E0F8A3E0F9EE241DF582EF3400F58349
